:020000040800F2
:10000000F806002045010008DF2E00084F2B0008ED
:10001000DD2E00084B050008793D000800000000B7
:10002000000000000000000000000000C12F0008D8
:100030006505000800000000952F000865300008E5
:100040005F0100085F0100085F0100085F01000810
:100050005F0100085F0100085F0100085F01000800
:100060005F0100085F0100085F0100085F010008F0
:100070004D050008590500085F0100085F010008F0
:100080005F0100085F010008810400085F010008AB
:100090005F0100085F0100085F0100085F010008C0
:1000A0005F0100085F0100085F0100085F010008B0
:1000B0005F010008D53100085F0100085F010008FA
:1000C0005F0100085F0100085F0100085F01000890
:1000D0005F0100085F010008093D0008153D0008A8
:1000E0005F0100085F0100085F0100085F01000870
:1000F0005F0100085F0100085F0100085F01000860
:100100005F0100085F0100085F0100085F0100084F
:100110005F0100085F0100085F0100085F0100083F
:100120005F0100085F0100085F0100085F0100082F
:10013000DFF80CD000F082F900480047E53D0008E8
:10014000F80600200648804706480047FEE7FEE71D
:10015000FEE7FEE7FEE7FEE7FEE7FEE7FEE7FEE777
:10016000ED30000831010008202A04DB203A21FA92
:1001700002F00021704721FA02F3D040C2F12002C0
:1001800091400843194670472DE9FE4F81EA030468
:1001900004F0004421F0004100944FF0000B23F0E4
:1001A000004350EA01045ED052EA03045BD0C3F37B
:1001B0000A54C1F30A552C44A4F2F3340194A0FB71
:1001C0000254C1F3130141F48011C3F3130343F448
:1001D000801301FB024400FB034E840A970A44EAA1
:1001E000815447EA8357A4FB076802958D0A05FBF3
:1001F00007854FEA932C04FB0C542705029D4FEA18
:10020000065847EA1637B5EB08056EEB070C870E64
:10021000920E47EA811742EA8312A7FB0201B6EB6E
:100220000B0164EB00042B0D43EA0C335E1844EB26
:100230001C50DA465146E7FB0201C5F313044FEAAE
:100240000B3343EA14534FEA0432019C43EA06039A
:10025000A4F10C040294009CCDE900B400F0A0F8D5
:1002600003B0BDE8F08F00200146F9E770B521F03A
:10027000004303430CD0C1F30A550024D5EB040519
:1002800064EB0403D617AD1AB34102DB002001462C
:1002900070BD201841EB025170BD0EB540F23341E4
:1002A00002910021CDE900110A460B4600F078F8D2
:1002B00003B000BD20F00040C10DC0F3160040F4B3
:1002C00000007F2901DA00207047962903DCC1F184
:1002D0009601C840704796398840704701F0004346
:1002E00030B421F0004150EA010206D00A0DA2F517
:1002F0006072C1F31301002A02DC30BC0020704799
:10030000440F44EAC104C100E01830BC00EBC25005
:10031000AFF300800029A8BF7047401C490008BF08
:1003200020F00100704710B4B0FA80FC00FA0CF025
:1003300050EA010404BF10BC704749B1CCF120045D
:1003400021FA04F411FA0CF118BF012121430843EA
:10035000A3EB0C01CB1D4FEA00614FEA102042BF16
:10036000002010BC704700EBC35010440029A4BF0C
:1003700010BC7047401C490008BF20F0010010BCB1
:10038000704710B5141E73F1000408DA401C41F1E7
:10039000000192185B411A4301D120F0010010BD09
:1003A0002DE9F04D92469B4611B1B1FA81F202E07F
:1003B000B0FA80F22032904600F052F804460F4620
:1003C00040EA0A0041EA0B0153465A46084313D05B
:1003D000114653EA010019D0C8F140025046FFF718
:1003E000C3FE05460E4650465946424600F038F8D0
:1003F000084305D0012004E020463946BDE8F08DD1
:100400000020054346EAE0762C4337430A9863050B
:10041000E40AA0EB08000022FD0A44EA47540A302F
:1004200002D500200146E9E7010510196941DDE91F
:10043000084500196941BDE8F04DA2E7064C074D9B
:1004400006E0E06840F0010394E8070098471034A4
:10045000AC42F6D3FFF770FE483E0008683E000845
:10046000202A04DB203A00FA02F100207047914074
:10047000C2F1200320FA03F31943904070470000B3
:10048000014800F0BBB900000801002070B5044627
:1004900000688168C943C9071CD1816821F0010146
:1004A000816000F06FFF05460FE000BF00F06AFFBB
:1004B000401B022809D9A06A40F01000A062E06A3F
:1004C00040F00100E062012070BD20688068C043F8
:1004D000C007EBD0002070BDF8B50026044600969A
:1004E00000688168C943C90728D0816841F00101CB
:1004F0008160134813490068B0FBF1F000E0401E32
:1005000000900028FBD100F03DFF054611E000BF40
:1005100000F038FF401B02280BD9A06A40F0100001
:10052000A062E06A40F00100E06284F824600120EB
:10053000F8BD20688068C043C007E9D10020F8BD3D
:100540000400002040420F007047FEE7014800F021
:100550008FBB00002C020020014800F089BB000086
:10056000F40100207047000010B5094800F020FB9E
:100570003221074800F084FA054800F03AF9054CAA
:10058000800503D5024800F036F96080608810BD10
:10059000080100200800002070B5002506462C4602
:1005A00005E000BFFFF7E0FF641C0544E4B2B4427D
:1005B000F8D3B5FBF6F080B270BD0000F8B50025A9
:1005C0000446009590F82400012808D0012084F802
:1005D00024002046FFF75AFF060002D04BE002201D
:1005E000F8BDA06A20F4885040F00200A06202200A
:1005F00001F00AF822490968B1FBF0F0400000E080
:10060000401E00900028FBD12046FFF765FF2068C0
:10061000816841F00801816000F0B4FE074604E003
:1006200000F0B0FEC01B0A2811D8206880680007BF
:10063000F6D42068816841F00401816000F0A2FED8
:1006400007460EE000F09EFEC01B0A2809D9A06AEA
:1006500020F0020040F01000A06284F82450012035
:10066000F8BD206880684007ECD4A06A20F0020042
:1006700040F00100A06284F824503046F8BD00002C
:100680000400002070470000F8B50025009590F8A0
:100690002420AE46012A1ED0012280F824204A6878
:1006A0001F244FF47873072A17D20668776B93FAE2
:1006B000A3FCBCFA8CFC521E02FB0CFC04FA0CF4EA
:1006C000A74393FAA3F3B3FA83F30C685A43944015
:1006D000274377632DE00220F8BD06680D2A14D267
:1006E000376B93FAA3FCBCFA8CFCD21F02FB0CFC08
:1006F00004FA0CF4A74393FAA3F3B3FA83F30C6858
:100700005A4394402743376313E0F76A93FAA3FCF4
:10071000BCFA8CFC0D3A02FB0CFC04FA0CF4A74367
:1007200093FAA3F3B3FA83F30C685A439440274334
:10073000F7620A683823072406680A2A14D3F76880
:1007400093FAA3FCBCFA8CFC0A3A02FB0CFC04FAF8
:100750000CF4A74393FAA3F3B3FA83F38C685A43D8
:1007600094402743F76012E0376993FAA3FCBCFA80
:100770008CFC02FB0CFC04FA0CF4A74393FAA3F3E1
:10078000B3FA83F38C685A439440274337610A686D
:10079000102A01D0112A20D1124B02689A4217D197
:1007A00093681B0219D4936843F4000393600968AB
:1007B000102912D10C490D4A0968B1FBF2F101EB85
:1007C0008101490000E0491E00910029FBD104E0AD
:1007D000816A41F020018162012580F824E02846E9
:1007E000F8BD0000002401400400002040420F003A
:1007F0007047806A70470068C06C704710B5044647
:1008000000684168890626D50168890723D5A16A51
:10081000C90603D4A16A41F40071A1628168C1F3E1
:100820004241072910D1E16871B9416821F02001E6
:100830004160A06A20F48070A062A06AC00403D462
:10084000A06A40F00100A0622046FFF7D1FF2168B6
:100850006FF0120008602068416809062ED5016813
:1008600049072BD5A16AC90603D4A16A41F40051F6
:10087000A1628168C1F30231072909D041684905A5
:1008800015D48168C1F34241072910D1E16871B9DB
:10089000416821F080014160A06A20F48050A0628C
:1008A000A06AC00503D4A06A40F00100A0622046FF
:1008B000FFF7E8FE21686FF00C00086020684168CF
:1008C00049060DD50068C0070AD0A06A40F4803000
:1008D000A062204600F0AAF821686FF001000860CD
:1008E00010BD00002DE9F04104004FF0000503D0D9
:1008F000A06A002618B108E00120BDE8F081E66298
:1009000084F82460204600F093F82046FFF7BEFDEF
:100910000146A06A00F01002A06A0A4303D040F02A
:100920001000A06279E020F4885040F00200A0623C
:100930003B4823688342E06904D1B0F5402F01D1E0
:100940004FF40020022292FAA2F2E768B2FA82F291
:1009500007FA02F2104362684FF4807C1043A268E9
:10096000624509D0012A07D05FF00002D4F814E0F4
:10097000BEF1010F02D00AE06246F7E7C7B1A76AED
:1009800047F02007A762E76A47F00107E7625F6860
:1009900027F4694717435F6022689368214F3B4003
:1009A00003439360A268624510D0012A0ED016E07E
:1009B0004FF4604EA7699EFAAEFEBEFA8EFE7F1E11
:1009C00007FA0EF7174347F40062E0E74FF47002AE
:1009D000256992FAA2F2B2FA82F26D1E954022685F
:1009E000D36A23F470032B43D362226892680E4BC0
:1009F0001A40824207D1E662A06A20F0020040F06D
:100A00000100A0620AE0A06A20F0020040F010009D
:100A1000A062E06A40F00100E062012108466CE754
:100A2000003C0140FDF7E1FFFE0E1FFF7047000094
:100A300000B500680F4985B0884218D10E48816919
:100A400041F4007181618069694600F4007004908E
:100A50002020009003200190084800F099FB00221C
:100A60001146122000F09EFD122000F08FFD05B00F
:100A700000BD0000002401400010024000100140B1
:100A80002DE9F84300260D460446009600F07AFC56
:100A9000804620688168C90508D5A06A40F020001A
:100AA000A06284F824600120BDE8F8834168C9058C
:100AB00003D4C06A10F4700F26D0022000F0A4FD09
:100AC00038490968B1FBF0F72068036936490B42E1
:100AD0004FEA61014FEAA1121BD1C3684FEA611CC2
:100AE00013EA0C0F15D103690B4221D1C0681042E3
:100AF0001ED114201FE0681C06D045B300F042FC54
:100B0000A0EB0800A84222D8206800688007F2D530
:100B10002AE003690B4202D1C168114206D0026982
:100B200022490A4206D1C068084203D1542002E09B
:100B3000292000E0FC204743009813E0681C0ED0F9
:100B40002DB100F01FFCA0EB0800A84207D9A06A55
:100B500040F00400A06284F824600320A4E7009819
:100B6000401C0090B842E9D321686FF01200086081
:100B7000A06A40F40070A06220688068C0F3424020
:100B800007280CD1E06850B9A06A20F48070A062F8
:100B9000A06AC00403D4A06A40F00100A062002053
:100BA00082E7000004000020244992244992240096
:100BB00070B5044690F8240001280DD0012084F877
:100BC00024002046FFF788FC02004FF0000005D00B
:100BD00084F82400104670BD022070BDA16A40F266
:100BE0000123994341F48071A1621F4D23681F497D
:100BF000AB4218D10E6816F4702F14D0A66A46F4D2
:100C00008016A6620E68760505D5A66A26F40056FB
:100C100046F48056A662A66AF6040AD5E66A26F06D
:100C20000606E66206E0A66A26F48016A6625E68FC
:100C3000E9E7E06284F824006FF0020018602068A1
:100C40008368C3F34243072B05D1A84208D1096842
:100C500011F4702F04D0816841F480118160B9E7EC
:100C6000816841F4A001F9E7002801400424014013
:100C70002DE9F05F0446F94AF84DF84EF74F006849
:100C8000DFF8D893DFF8D4A3DFF8D0B3D114783DE0
:100C9000643E503F4FF4000E4FF4004C4FF40028D8
:100CA000A9F13C09AAF1280AABF1140B904221D911
:100CB000EB4A1368A8420FD0B0420FD0B84213D00D
:100CC000484513D0504513D0584501D1724624E011
:100CD000E34A083290423CD108221EE080221CE008
:100CE000DF4A3032904239D10A4616E0624614E0BB
:100CF000424612E0D94A803A1368A842ECD0B0428A
:100D0000ECD0B842F0D04845F0D05045F0D058452E
:100D1000DCD0D24A9042DBD10205134279D002687E
:100D2000D243120775D4026822F008020260CB4A4F
:100D30002068904232D9A84219D0B0421DD0B842A2
:100D400028D0484523D0504523D058450BD1714673
:100D500020E0C34A1C329042C2D1BFE7C04A4432AD
:100D60009042C5D1C2E7BE4A0832904201D1082163
:100D700010E0BB4A1C32904201D180210AE0B84AFF
:100D80003032904206D0B6494431884201D16146A2
:100D900000E04146B248001D01602CE0A84214D09A
:100DA000B04218D0B84223D048451ED050451ED07E
:100DB000584501D171461BE0904202D14FF00061CD
:100DC00016E0A74A0832904201D1082110E0A44A57
:100DD0001C32904201D180210AE0A14A3032904277
:100DE00006D09F494431884201D1614600E0414626
:100DF0009A4880384160606B40F0010060630420D5
:100E000084F82100002084F82000216B09B12046DD
:100E10008847924A206811154FF4800E4FF4804C99
:100E20004FF48028904221D98D4A1368A8420FD0F0
:100E3000B0420FD0B84213D0484513D0504513D01C
:100E4000584501D1724624E0854A083290423FD18C
:100E500004221EE040221CE0814A303290423CD104
:100E60000A4616E0624614E0424612E07B4A803AA7
:100E70001368A842ECD0B042ECD0B842F0D048455C
:100E8000F0D05045F0D05845DCD0744A9042DBD1C8
:100E9000C204134275D00268D243520771D402686B
:100EA000920603D4026822F0040202606B4A2068B2
:100EB000904232D9A84219D0B0421DD0B84228D0B1
:100EC000484523D0504523D058450BD1714620E0EA
:100ED000634A1C329042BFD1BCE7614A443290421F
:100EE000C2D1BFE75E4A0832904201D1042110E02E
:100EF0005B4A1C32904201D140210AE0584A30320C
:100F0000904206D056494431884201D1614600E002
:100F100041465348001D01602CE0A84214D0B04265
:100F200018D0B84223D048451ED050451ED0584551
:100F300001D171461BE0904202D14FF0806116E072
:100F4000474A0832904201D1042110E0444A1C3241
:100F5000904201D140210AE0414A3032904206D00D
:100F60003F494431884201D1614600E041463B4857
:100F700080384160112084F82100E16A09B12046DF
:100F80008847364A206851154FF4005C4FF4003E04
:100F9000904228D9324B1B68A84212D0B04213D0DD
:100FA000B8421AD048451AD050451AD0584502D1F7
:100FB0004FF400182AE0DFF8A88008F1080840453F
:100FC00044D14FF0020821E04FF020081EE0DFF886
:100FD000908008F13008404544D1884616E0E0464C
:100FE00014E0F04612E01D4B803B1B68A842E8D09D
:100FF000B042E9D0B842F0D04845F0D05045F0D0EA
:101000005845D5D09042D6D14FF0007813EA080F5A
:1010100070D00368DB439B077FD403689B0603D42F
:10102000036823F0020303602068904239D9A84284
:1010300021D0B04225D0B8422FD048452AD05045C3
:101040002AD0584513D14FF4001126E0DFF8108064
:1010500008F11C084045BAD1B6E700008000024004
:1010600000040240DFF8B8804045BAD1B7E72C4A07
:101070003C3A904201D102210FE0294A283A90429D
:1010800001D1202109E0264A143A904205D0244992
:10109000884201D1614600E0714621484038016034
:1010A0002CE0A84215D0B04219D0B84224D048450F
:1010B0001ED050451FD0584502D14FF400111BE0FF
:1010C000904202D14FF0007116E0154A3C3A90422E
:1010D00001D1022110E0124A283A904201D1202188
:1010E0000AE00F4A143A904206D00D49884202D1D4
:1010F000614601E011E071460A484160606B60633F
:10110000012084F82100002084F82000A16A002931
:1011100003D02046BDE8F05F0847BDE8F09F00001F
:10112000440402400000024070B520B190F8211044
:10113000002411B103E0012070BD80F8204002219D
:1011400080F8211003681A6843F6F0718A43D0E9E9
:1011500001152943D0E903563543294345692943FD
:1011600085692943C56929431143196044630121F5
:1011700080F82110002070BD31B500F003F904465D
:1011800000F000F90099001B8842F9D338BD000037
:101190002DE9F84FDFF8B8A100220AF1040B14463C
:1011A00001274FF00F090BF1040E00BF0B6807FA7F
:1011B00004F52B40AB4274D1DFF898C14E68A6EB22
:1011C0000C0866452BD00DDC032E34D005DC36B37D
:1011D000012E19D0022E2FD11BE0112E16D0122E67
:1011E0002AD119E0B8F5881F19D006DCB8F5803F80
:1011F00015D0B8F5801F1FD111E0B8F5001F0ED033
:10120000B8F5041F18D10AE0CA6815E0CA68121DB3
:1012100012E0CA6808320FE0CA680C320CE08A6833
:101220002AB1012A4FF0080203D0456104E00422EC
:1012300002E0056100E00022FF2B01D8064601E034
:1012400000F104064FEA840501D9A5F12005D6F87E
:1012500000C009FA05F82CEA080C02FA05F54CEA78
:10126000050CC6F800C04D68ED006AD53A4DAE6970
:1012700046F00106AE61AD6924F0030605F00105F4
:101280000095364D06EB050CDCF80850A6074FEA32
:10129000167809FA08F6B543314EB04202D100265D
:1012A0001AE04EE02F4EB04201D1012614E02E4E3E
:1012B000B04201D102260FE02C4EB04201D10326EC
:1012C0000AE02B4EB04201D1042605E0294EB0427F
:1012D00001D1052600E0062606FA08F62E43CCF8D2
:1012E00008604D68DAF80060ED03554601D51E43ED
:1012F00000E09E432E604D68AD0305D5DBF800602D
:101300001E43CBF8006004E0DBF800509D43CBF8AF
:1013100000504D68DEF80060ED02754601D51E43B1
:1013200000E09E432E604D68AD0205D5084D0C359A
:101330002E681E432E6004E0054E0C3635689D4332
:101340003560641C102CFFF431AFBDE8F88F00004D
:101350000004014000001110001002400000014094
:1013600000080140000C0140001001400014014041
:1013700000180140001C01400AB1016170470904D6
:10138000FBE70000014800687047000000000020F3
:1013900070B5040004D094F83500002510B106E0C3
:1013A000012070BD84F83450204600F061F82420FC
:1013B00084F835002068016821F00101016000F027
:1013C00003FB014628482268B1FBF0F05060274A31
:1013D0006368934206D94FF4967358434FF47A7377
:1013E000B0FBF3F02368401C18626068904208D894
:1013F0004000B1FBF0F0C0F30B01042916D2042029
:1014000014E0A26852B100EBC00202EB0010B1FB85
:10141000F0F040F44040010507D007E000EB400049
:10142000B1FBF0F040F40040F5E701202168C8610D
:10143000D4E90701084321680860D4E90310084390
:1014400021688860D4E9050108432168C8602068E4
:10145000016841F001010160A563202084F8350096
:1014600084F83650002070BD40420F00A086010075
:1014700000B500680C4985B0884212D1C0200090A8
:10148000122001900320039069460848FFF780FE70
:101490000748C16941F40011C161C06900F400103E
:1014A000049005B000BD000000540040000C014055
:1014B0000010024002480168491C016070470000AA
:1014C00000000020074810B5016841F010010160DC
:1014D000032000F087F8002000F006F800F016F86E
:1014E000002010BD0020024010B5044600F066FA4E
:1014F0004FF47A71B0FBF1F000F0A8FD0022214614
:10150000501E00F04FF8002010BD00001D4808B527
:10151000816941F001018161806900F00100009062
:10152000032000F05FF8002211466FF00B0000F07E
:1015300039F8002211466FF00A0000F033F800225B
:1015400011466FF0090000F02DF800221146501FDF
:1015500000F028F800221146101F00F023F80022A6
:101560001146901E00F01EF800221146501E00F099
:1015700019F80548416821F0E06141F000714160CF
:1015800008BD0000001002400000014000F01F02F2
:10159000012191404009800000F1E020C0F80011D5
:1015A00070470000F0B40E4B1B680C46C3F30223D7
:1015B000C3F10705042D00D90425191D072901D2FF
:1015C000002300E0DB1E012606FA05F1491E21403A
:1015D00099409E40761E16403143F0BC01F080BC1D
:1015E0000CED00E0064900F0070208684FF6FF0323
:1015F000184040EA0220034A104308607047000088
:101600000CED00E00000FA0510B536A401461DCC33
:1016100086B08DE81D0037A0374C0068049000208C
:10162000042944D012DC012944D002293DD100F024
:10163000E3F961684FF4804292FAA2F201F440416A
:10164000B2FA82F2D140491C49002CE008292ED080
:1016500010292AD161682268D20126D54FF4701270
:1016600092FAA2F201F47010B2FA82F2D040C903E9
:101670001DF8000010D561684FF4003292FAA2F212
:1016800001F40031B2FA82F2D14004AA515C1B4A43
:10169000B2FBF1F1484301E019494843616849024E
:1016A00003D440000321B0FBF1F006B010BD00F000
:1016B000BBF9FAE7226AC2F30121012903D192079B
:1016C00001D5C803F1E7022905D1626A920702D564
:1016D00049F64040E9E70329E7D121688903E4D5C9
:1016E0000848E2E702030405060708090A0B0C0D87
:1016F0000E0F101001020000001002400024F40040
:1017000000093D0048E801002DE9F843054600784E
:10171000454CC00774D0E06940F08050E061E0695A
:10172000424E00F080500090306840F4807030608D
:10173000FFF728FE074604E0FFF724FEC01B6428DD
:1017400033D83068C005F7D5206A10F4407051D006
:10175000A98801F4407181424CD0206A01263104ED
:1017600091FAA1F2B2FA82F29300314A20F4407069
:101770001344C3F8006491FAA1F1B1FA81F102EBCC
:1017800081010023C1F800342062C00732D0FFF786
:10179000F9FD074641F288394FF0020808E000BF22
:1017A000FFF7F0FDC11B494502D90320BDE8F883CE
:1017B00098FAA8F1B1FA81F141F040014046B6EB48
:1017C000511F01D121680BE090FAA0F1B1FA81F12B
:1017D00041F04001B0EB511F01D1216A00E0616A84
:1017E00098FAA8F0B0FA80F000F01F0206FA02F0B2
:1017F0000142D5D0206A696820F440700843206215
:101800002878800705D56068A96820F4404008431F
:1018100060602878C00605D56068696920F480009A
:10182000084360600020C1E70010024000700040E3
:10183000000042422DE9F047DFF8708105460E4670
:10184000D8F8000000F00700B0420CD2D8F8001021
:1018500021F007013143C8F80010D8F8000000F06B
:101860000700B04277D12878514C800705D56068D1
:10187000A96820F0F000084360602878C00759D0BC
:101880006968012001290DD0022929D05FF00203E7
:1018900093FAA3F2B2FA82F242F02002520904D083
:1018A000226803E04FF40033F2E7626A93FAA3F38D
:1018B000B3FA83F303F01F03984002424BD06068F1
:1018C00020F0030008436060FFF75CFD696807468D
:1018D00041F2883001290DD00229814617D025E038
:1018E0004FF00073D4E700BFFFF74CFDC11B494523
:1018F00001D918E081466068C0F381000128F3D166
:1019000018E000BFFFF73EFDC11B49450BD86068DA
:10191000C0F381000228F5D10CE000BFFFF732FDD3
:10192000C11B494502D90320BDE8F087606810F06B
:101930000C0FF3D1D8F80010404601F00701B14276
:101940000BD9016821F0070131430160006800F004
:101950000700B04201D00120E6E72878400705D50E
:101960006068E96820F4E060084360602878000758
:1019700006D56068296920F4605040EAC1006060C3
:1019800000F052F86168F02292FAA2F201F0F00140
:10199000B2FA82F2D140074A515CC8400649086059
:1019A0000020FFF7A1FD0020BEE70000002002405C
:1019B00000100240303E000804000020014800688A
:1019C0007047000004000020084809490068496881
:1019D0004FF4E06292FAA2F201F4E061B2FA82F20C
:1019E000D140044A515CC840704700000400002008
:1019F00000100240403E0008084809490068496854
:101A00004FF4605292FAA2F201F46051B2FA82F2FB
:101A1000D140044A515CC8407047000004000020D7
:101A200000100240403E000810B51AA385B00FCB4D
:101A30008DE80F001BA01C4B006804905A681B48DF
:101A400002F00C01042902D0082902D0401005B090
:101A500010BD4FF4701494FAA4F402F47011B4FAA7
:101A600084F4E140D2031DF801100FD55A684FF4F9
:101A7000003393FAA3F302F40032B3FA83F3DA40AB
:101A800004AB9A5CB0FBF2F04843E0E708484843F7
:101A9000DDE7000002030405060708090A0B0C0D28
:101AA0000E0F101001020000001002400024F4008C
:101AB00000093D002DE9F84F04460078F74DC007B6
:101AC0004FF0010625D068687704C0F38100012833
:101AD00007D06868C0F3810002281BD16868C00382
:101AE00018D597FAA7F0B0FA80F040F0200040092E
:101AF00001D0286800E0686A97FAA7F1B1FA81F18D
:101B000001F01F0106FA01F108425ED0606800286A
:101B10007CD05AE06068B0F5803F0BD010B1B0F5D2
:101B2000A02F11D0286820F480302860286820F485
:101B3000802002E0286840F480302860606828B384
:101B4000FFF720FC80460BE0286840F480202860E6
:101B5000F0E700BFFFF716FCA0EB0800642871D87F
:101B600097FAA7F0B0FA80F040F02000400901D0C9
:101B7000286800E0686A97FAA7F1B1FA81F101F0EC
:101B80001F0106FA01F10842E4D01EE0FFF7FAFB5C
:101B9000804605E0FFF7F6FBA0EB08006428DED8DE
:101BA00097FAA7F0B0FA80F040F02000400901D089
:101BB000286800E0686A97FAA7F1B1FA81F101F0AC
:101BC0001F0106FA01F10842E4D12078DFF8D08243
:101BD00080074FF000094FF002075BD568684FF0AF
:101BE000F80B10F00C0F07D06868C0F381000228D2
:101BF0001CD16868C00319D497FAA7F0B0FA80F036
:101C000040F02000400902D0286801E08BE0686ABB
:101C100097FAA7F1B1FA81F101F01F0106FA01F17B
:101C200008422CD0206901287DD128E0206990B39A
:101C300096FAA6F0B0FA80F048F82060FFF7A2FB11
:101C4000824607E011E100BFFFF79CFBA0EB0A0012
:101C5000022884D897FAA7F0B0FA80F040F020006C
:101C6000400901D0286800E0686A97FAA7F1B1FA44
:101C700081F101F01F0106FA01F10842E4D0286861
:101C80009BFAABF26169B2FA82F220F0F80091405F
:101C90000843286025E0FFE796FAA6F1B1FA81F142
:101CA00048F82190FFF76EFB824605E0FFF76AFBDC
:101CB000A0EB0A000228CCD897FAA7F0B0FA80F07F
:101CC00040F02000400901D0286800E0686A97FAD7
:101CD000A7F1B1FA81F101F01F0106FA01F1084202
:101CE000E4D1207800076ED5A069B8B396FAA6F0C3
:101CF000B0FA80F008EB8000C0F88064FFF742FB88
:101D0000824605E0FFF73EFBA0EB0A000228A0D8C0
:101D100097FAA7F0B0FA80F040F06000B6EB501FE1
:101D200002D128680CE062E197FAA7F0B0FA80F0DF
:101D300040F06000B7EB501F01D1286A00E0686AEC
:101D400097FAA7F1B1FA81F101F01F0106FA01F249
:101D50001042D7D00120FFF70FFA34E0FFE796FAE0
:101D6000A6F1B1FA81F108EB8101C1F88094FFF787
:101D700009FB824606E000BFFFF704FBA0EB0A0068
:101D8000022872D897FAA7F0B0FA80F040F060000D
:101D9000B6EB501F01D128680BE097FAA7F0B0FA14
:101DA00080F040F06000B7EB501F01D1286A00E0DE
:101DB000686A97FAA7F1B1FA81F101F01F0106FAFA
:101DC00001F21042D8D12078400765D5E86940F08B
:101DD0008050E861E869DFF8CCB000F080500090F6
:101DE000DBF8001041F48071CBF80010FFF7CAFA5D
:101DF000824605E0FFF7C6FAA0EB0A00642834D853
:101E0000DBF80000C005F5D5E06801280AD008B16C
:101E1000052813D0286A20F001002862286A20F0E3
:101E2000040002E0286A40F001002862E06841F204
:101E3000883B90B3FFF7A6FA82460BE0286A40F091
:101E400004002862EEE700BFFFF79CFAA0EB0A014E
:101E500059450AD897FAA7F0B0FA80F040F0400050
:101E6000B6EB501F02D128680CE0A3E097FAA7F068
:101E7000B0FA80F040F04000B7EB501F01D1286A63
:101E800000E0686A97FAA7F1B1FA81F101F01F0248
:101E900006FA02F10842D7D031E005E00010024016
:101EA0000000424200700040FFF76CFA824605E0F5
:101EB000FFF768FAA0EB0A0159457BD897FAA7F01B
:101EC000B0FA80F040F04000B6EB501F01D1286816
:101ED0000BE097FAA7F0B0FA80F040F04000B7EBC3
:101EE000501F01D1286A00E0686A97FAA7F1B1FA99
:101EF00081F101F01F0206FA02F10842D8D1E0692F
:101F000080B36968C1F38101022970D04FF08071FC
:101F10004F000228484609D091FAA1F1B1FA81F1A7
:101F200048F82100FFF72EFA044669E08A4691FA44
:101F3000A1F1B1FA81F1C14648F82100FFF722FA78
:101F4000804605E0FFF71EFAA0EB0800022854D8EF
:101F500097FAA7F0B0FA80F040F02000400902D0D4
:101F6000286801E061E0686A97FAA7F1B1FA81F1A7
:101F700001F01F0106FA01F10842E3D1206AB0F531
:101F8000803F05D16868A16820F40030084368608C
:101F9000D4E908010843696821F4741108436860B2
:101FA0009AFAAAF0B0FA80F049F82060FFF7EAF94F
:101FB000044606E021E000BFFFF7E4F9001B022819
:101FC0001BD897FAA7F0B0FA80F040F02000400943
:101FD00001D0286800E0686A97FAA7F1B1FA81F1A8
:101FE00001F01F0106FA01F10842E5D01DE01EE0F4
:101FF000FFF7C8F9001B022802D90320BDE8F88FBB
:1020000097FAA7F0B0FA80F040F02000400901D024
:10201000286800E0686A97FAA7F1B1FA81F101F047
:102020001F0106FA01F10842E2D10020E6E7012093
:10203000E4E74FF0E0210428086903D020F0040011
:102040000861704740F00400FAE7704710B5401E81
:10205000B0F1807F01D3012010BD4FF0E02460611A
:102060000F21601700F03CFF0020A06107202061D5
:10207000002010BD10B5FFF7E8FF10BD7047704796
:1020800030B590F83820012A19D0012200F8382FF5
:1020900002234370D1E900342343D1E902452C43A4
:1020A00023430C6923434C69896923430B4350F84C
:1020B000381C4B64427000210170084630BD02207C
:1020C00030BD30B590F83820012A20D0012280F8A8
:1020D0003820022380F8393003685C6824F07004EB
:1020E0005C6003685C680D682C435C6003689C68F6
:1020F00024F080049C6003689C6849680C439C60E1
:1021000080F83920002180F83810084630BD0220C0
:1021100030BD10B5040003D094F8390010B107E0C9
:10212000012010BD002084F83800204600F00CF893
:10213000022084F83900211D206801F051F80120A7
:1021400084F83900002010BD7047022180F8391052
:1021500001680A6842F001020A60012180F8391022
:10216000002070470168CA6842F00102CA60006836
:10217000016841F0010101600020704770B504461C
:1021800090F83800012817D0012584F83850022033
:1021900084F839002068826822F0770222F47F42B6
:1021A00082600868502837D00DDC202859D005DC23
:1021B00088B3102841D151E0022070BD302853D09F
:1021C00040283AD13FE060282ED070280BD0B0F5DF
:1021D000805F03D0B0F5005F2FD110E020688168E8
:1021E00021F0070115E0CB68D1E90121206801F059
:1021F00044F82168886840F0770088601DE0CB686B
:10220000D1E90121206801F038F82068816841F4A3
:102210008041816011E01EE0CA684968206801F0D1
:1022200001F95021206806E0CA684968206801F079
:1022300041F96021206801F02AF884F83950002023
:1022400084F8380070BDCA684968206801F0EAF86F
:1022500040212068EFE700212068ECE7102120688A
:10226000E9E720212068E6E730212068E3E7000065
:1022700070B506460021184800F0ABFA174D80B241
:10228000A5F110046880216811B1012902D011E084
:1022900060600FE0A0606168884203D2C1F58032BF
:1022A0001044A060401A4FF47A71E060B0FBF1F086
:1022B0000B49087131686FF002000861002106487F
:1022C00000F0E2F8012028702068401C20600228FD
:1022D00001D30020206070BDCC0000202000002031
:1022E0007C0200202DE9F041044690F838000D46AC
:1022F00001283DD0012684F83860022084F8390096
:10230000AAB3042A46D02068082A55D0D5E9002768
:10231000E968036A23F480530362D0F81CC0036A9F
:102320002CF4407C4CEA07274FF6FF7C27F47047DB
:102330000CEA013139434FF4204723F4204307EAE4
:1023400002321A43C16102622068C16921F440610E
:10235000C1612068C169AA6841EA0221C0F81C1065
:1023600084F83960002084F83800BDE8F08101E08D
:102370000220FAE7D5E90012EB68206801F064F862
:102380002068816921F00C01816120688169AA6857
:1023900011430FE0D5E90012EB68206801F09CF8CA
:1023A0002068816921F44061816120688169AA689F
:1023B00041EA02218161D3E7D5E9002C2F7B016A34
:1023C00021F480710162C169036A21F0030141EACD
:1023D0000C0121F0F00C39074FF420674CEA116131
:1023E00023F4206307EA02221A43C16102622068D3
:1023F000C16921F00C01C1612068C169AA6811435B
:10240000ACE710B5040003D094F8390010B107E030
:10241000012010BD002084F83800204600F00CF8A0
:10242000022084F83900211D206800F0D9FE012027
:1024300084F83900002010BD00B500680F4985B050
:10244000884219D10E48C16941F00201C161C069D9
:10245000694600F0020004904020009000200190A6
:1024600002900848FEF794FE002211461D20FFF757
:1024700099F81D20FFF78AF805B000BD0004004060
:10248000001002400008014010B50268044631B156
:10249000042908D0082915D00C2908D116E0D068E5
:1024A00040F0020002E0D06840F00400D060012259
:1024B000206800F0D7FE2068016841F0010101604A
:1024C000002010BDD06840F00800EFE7D06840F071
:1024D0001000EBE770B50446006801694FF0000595
:1024E000C943890715D4C168C943890711D4E91EB6
:1024F000016101202076206880698007204602D093
:10250000FFF7B6FE04E000F0ADF8204600F042F917
:10251000257620680169C943490717D4C168C943B2
:10252000490713D46FF0040101610220207620686E
:10253000806910F4407F204602D0FFF799FE04E046
:1025400000F090F8204600F025F925762068016912
:10255000C943090716D4C168C943090712D46FF0EB
:1025600008010161042020762068C06980072046A8
:1025700002D0FFF77DFE04E000F074F8204600F082
:1025800009F9257620680169C943C90617D4C168CD
:10259000C943C90613D46FF01001016108202076E9
:1025A0002068C06910F4407F204602D0FFF760FE2B
:1025B00004E000F057F8204600F0ECF8257620689B
:1025C0000169C943C90708D1C168C943C90704D112
:1025D000891E0161204600F0FBF820680169C943AB
:1025E000090609D4C168C943090605D46FF0800102
:1025F00001612046FFF742FD20680169C943490691
:1026000009D4C168C943490605D46FF0400101618E
:10261000204600F000F920680169C94389060BD4FF
:10262000C168C943890607D46FF0200101612046C3
:10263000BDE87040FFF723BD70BD00001FB5006806
:102640000649884208D1801500900220019003902D
:1026500069460348FEF79CFD1FBD0000002C0140A9
:1026600000080140704770B5044690F838000D46E8
:1026700001280DD0012684F83860022084F8390042
:1026800042B1042A18D0082A2AD00C2A4DD139E0A8
:10269000022070BD206800F003FE2068816941F0CF
:1026A000080181612068816921F00401816120684D
:1026B00081692A69114311E0206800F021FE206839
:1026C000816941F4006181612068816921F4806140
:1026D0008161206881692A6941EA0221816124E0DF
:1026E000206800F043FE2068C16941F00801C16123
:1026F0002068C16921F00401C1612068C1692A69AB
:10270000114311E0206800F065FE2068C16941F4C2
:102710000061C1612068C16921F48061C1612068E4
:10272000C1692A6941EA0221C16184F83960002047
:1027300084F8380070BD10B5040003D094F8390057
:1027400010B107E0012010BD002084F838002046B9
:1027500000F00CF8022084F83900211D206800F0F8
:102760003FFD012084F83900002010BD08B5006845
:102770000649884208D10648816941F400618161B7
:10278000806900F40060009008BD0000002C01404A
:10279000001002407047000010B504460068012296
:1027A00000F060FD08492068884202D0074988424D
:1027B00003D1416C41F4004141642068016841F05B
:1027C00001010160002010BD002C014000340140D7
:1027D000704790F838300022012B0AD0012380F88E
:1027E000383041B1042909D008290AD00C290DD16B
:1027F0000AE00220704701684A6B07E001688A6BB3
:1028000004E00168CA6B01E001680A6C002180F8ED
:1028100038101046704770477047000038B50446BE
:1028200000680168C26811F0010F02F4807204D0E0
:102830001AB1E16B41F00101E1630168C1F34002AB
:10284000416901F0010122B119B1E26B42F00402C9
:10285000E2630268C2F3800222B119B1E26B42F076
:102860000202E2630268C2F3C00222B119B1E16B55
:1028700041F00801E1630168C068C1F3401100F054
:10288000200019B110B1204601F02AF82068016833
:10289000C068C1F3C01100F0800019B110B120462A
:1028A00001F050F921680868CA68C0F3801002F08E
:1028B0004002012570B16AB1CA68204622F0400288
:1028C000CA6094F83910322911D080F8395000BF0D
:1028D00000F03CF9E06B002808D0206801684068EF
:1028E000009084F839502046FFF796FF38BD22212A
:1028F00080F83910ECE770B5040004D094F8390082
:10290000002510B106E0012070BD84F83850204643
:1029100000F020F8022084F839002068C16821F412
:102920000051C160204601F055F82068016921F48A
:10293000904101612068416921F02A0141612068CC
:10294000C16841F40051C160E563012084F8390099
:10295000002070BDF0B506463D4D03683D4802219C
:102960000322002485B0AB421FD1C36943F4003376
:10297000C361C069384D00F4003004900420CDE9F3
:102980000001039269462846FEF702FC0820CDE9C3
:102990000004694628460294FEF7FAFB002211461D
:1029A0002620FEF7FFFD26204EE02C4DAB424DD1F8
:1029B000C36943F48023C361C069039200F480209B
:1029C00004902815CDE90001254D69462846FEF7FB
:1029D000DFFBE814CDE90004694628460294FEF7BF
:1029E000D7FB214D1F488027C5E90004C5E90247F0
:1029F0002C616C61AC612846EC61FEF795FB18B167
:102A0000A1211AA001F0B9F975636E62164D15483F
:102A10003835143801C5102091C5202045F81049DB
:102A2000C5E905401048EC613830FEF77DFB18B170
:102A3000B1210EA001F0A1F9356300221146272033
:102A40006E62FEF7AFFD2720FEF7A0FD05B0F0BDDA
:102A500000440040001002400008014000480040CF
:102A6000000C014030000240F40100202E2E2F53B4
:102A700072632F75736172742E63000070470000DB
:102A80002DE9F047044690F8390099460D46012893
:102A900001D0222858D12DB322B394F83800012850
:102AA00052D0012684F838600027E76394F8390093
:102AB00022281AD05FF0120084F83900A284E28440
:102AC0004FF48058E08C4B46401EE084A0684FF0E5
:102AD000000240454FF08001204613D101F0CAF8B2
:102AE00008BB04E00120BDE8F0873220E4E7288835
:102AF0002168C0F308004860206908B16D1C08E037
:102B0000AD1C06E001F0B6F868B9216815F8010BB4
:102B10004860E08C0028D5D14B4600224021204659
:102B200001F0A8F808B10320DDE794F83900322855
:102B300006D084F8396000BF84F838700020D2E7EE
:102B4000222084F83900F7E70220CCE77047FEE73F
:102B50003EB51248002410498460C460446101609D
:102B6000012505614FF460214460C161FDF7BAFEA3
:102B700018B143210AA001F000F90F20CDE90005AA
:102B8000694602940548FDF77FFD002803D04D21DA
:102B900003A001F0F2F83EBD00240140080100202E
:102BA0002E2E2F5372632F6164632E63000000008A
:102BB0000D4808B5416941F00101416140690022B9
:102BC00000F00100009011460C20FEF7EBFC0C20F9
:102BD000FEF7DCFC002211460D20FEF7E3FCBDE809
:102BE00008400D20FEF7D2BC00100240164810B578
:102BF000816986B041F004018161816901F00401BD
:102C00000491816941F010018161816901F0100135
:102C10000491816941F00801816180690B4C00F0E9
:102C2000080004900022C0212046FEF7A5FBC0202A
:102C30000090012001900220039069462046FEF793
:102C4000A7FA06B010BD000000100240000C0140C1
:102C50000E4810B50C4901600D49416000214FF448
:102C600080428160C0E9031241618161C1610162FA
:102C7000FEF78EFB002805D0BDE81040422105A0DC
:102C800001F07BB810BD0000005400403801002066
:102C9000A08601002E2E2F5372632F6932632E639C
:102CA0000000000010B5264890B0244901603F2183
:102CB0000024C0E9011444F61F61C0E90314446113
:102CC000FFF739FD18B145211EA001F056F80E940A
:102CD0000EA91B480F94FFF7F4F918B14C2119A065
:102CE00001F04BF86020009042F21070CDE9010431
:102CF0000394049405940022694611480694FFF752
:102D0000B2FC18B158210FA001F037F807940894CD
:102D100009944FF400500A94CDE90B4007A90848E4
:102D20000D94FFF7ADF918B1642106A001F025F864
:102D30000348FFF783FC10B010BD0000002C0140D9
:102D4000900000202E2E2F5372632F74696D2E6316
:102D50000000000010B5174886B04FF080410160B8
:102D60003F210024C0E901144FF6FF71C0E90314AC
:102D7000FFF7CFF918B178210FA000F0FEFF4FF454
:102D80008050009069460B48FFF7F8F918B17E2192
:102D900009A000F0F2FF049404A906480594FFF787
:102DA00090F9002803D0852103A000F0E6FF06B0CB
:102DB00010BD0000540000202E2E2F5372632F747C
:102DC000696D2E630000000010B5194886B01749E0
:102DD00001603F210024C0E901144FF6FF71C0E9F2
:102DE0000314FFF70EFB18B1992112A000F0C5FFE4
:102DF000049404A90E480594FFF763F918B1A021C3
:102E00000CA000F0BAFF0120CDE90040029400229E
:102E1000694607480394FFF765FA002803D0A92103
:102E200004A000F0AAFF06B010BD0000000400409E
:102E3000CC0000202E2E2F5372632F74696D2E63E9
:102E4000000000000D4810B50B4901604FF4E1315E
:102E50004160002181600C22C160C0E904128161DF
:102E6000C161FFF748FD002805D0BDE810404621AC
:102E700003A000F082BF10BD004400407401002098
:102E80002E2E2F5372632F75736172742E630000A0
:102E90000D4810B50B4901604FF4E131416000214C
:102EA00081600C22C160C0E904128161C161FFF739
:102EB00022FD002805D0BDE81040592103A000F0F4
:102EC0005CBF10BD00480040B40100202E2E2F53DF
:102ED00072632F75736172742E630000FEE7704792
:102EE0000907090E002806DA00F00F0000F1E020C3
:102EF00080F8141D704700F1E02080F8001470473E
:102F00002DE9FF41064655208DF80000AA208DF8D6
:102F100001008DF802200A208DF80300087882F065
:102F20000A028DF8040050404A788DF8052042408E
:102F300088788DF806005040CA788DF80720424006
:102F400008798DF8080050404A798DF809204240F0
:102F500088798DF80A005040CA798DF80B204240DC
:102F6000087A8DF80C00497A50408DF80D104140D8
:102F7000F02000248DF80E106D468DF80F001027FC
:102F8000295D304600F072FC641CE4B2BC42F7D309
:102F9000BDE8FF81704710B50446007800280ED0C8
:102FA00001202070FEF7EEF96060FEF7EBF9A060FB
:102FB000002020612046BDE8104000F0BDBE10BDDD
:102FC0007047000010B50A20FDF7E6FA0A4C208091
:102FD000FDF763F94FF06632084BFDF7D5F86FF057
:102FE0000B02FDF743F9FDF779F96060FDF762F92F
:102FF0000349487110BD00000800002066660A40C1
:103000007C02002010B50446007800280ED1012073
:103010002070FEF7B7F96060FEF7B4F9A0600020F9
:1030200020612046BDE8104000F086BE10BD0000C3
:103030000148FFF78AB800005400002070B504462C
:10304000007800280DD000252570FEF79BF9606000
:10305000FEF798F92561A0602046BDE8704000F0B9
:103060006BBE70BD10B5FEF725FABDE81040FFF746
:1030700001B830B595B002240120049000941020CE
:10308000059000254FF46010CDE90850079468467C
:10309000FEF710FD00B1FEE70AA90F2081E831001C
:1030A0004FF48060CDE90D0502210AA8FEF7C2FBAE
:1030B00000B1FEE74FF4004011900F940FA8FEF707
:1030C00023FB00B1FEE7FEF779FC4FF47A71B0FB09
:1030D000F1F0FEF7BBFF0420FEF7ABFF0022114624
:1030E000501EFEF75FFA15B030BD00000D480168B4
:1030F00041F00101016041680B4A114041600168E3
:103100000A4A11400160016821F480210160416890
:1031100021F4FE0141604FF41F0181600449C003A6
:1031200008607047001002400000FFF8FFFFF6FE45
:1031300008ED00E010B500210E48FFF72DFB0E480A
:10314000FDF736FD0C48FDF739FA0B48FDF736FA66
:103150000028FAD10948FFF705F800210748FFF7D2
:1031600093F9FFF765FF06480068C16841F0200148
:10317000C16010BD9000002008010020CC0000209C
:10318000B401002010B500281AD00E490E4800F0F6
:10319000BFF9FFF717FF0D48FFF734FF0B4800F0AA
:1031A000CBFD0A48406964280AD10848FFF7F3FEBE
:1031B00006490122BDE8104018310548FFF7A0BEBE
:1031C00010BD00004905000828000020640200200E
:1031D0003C0000200148FFF77DB90000CC00002032
:1031E000F0B502681A4B1B4D1B4E1C4F1C4C4FF088
:1031F000804C984209D0A04207D0604505D0A84233
:1032000003D0B04201D0B84204D122F0700E4A6817
:1032100042EA0E02984209D0A04207D0604505D08C
:10322000A84203D0B04201D0B84203D122F4407585
:10323000CA682A4302608A68C2620A688262984247
:1032400001D0A04201D10969016301214161F0BDB2
:10325000002C01400004004000080040000C004029
:103260000034014010B50123046A8B409C43046282
:10327000036A8A401343036210BD10B5846842EAB2
:10328000032224F47F440A432243826010BD8268F3
:1032900022F070020A4342F007018160704700008B
:1032A000F0B5026A22F001020262036A4268846990
:1032B000124E24F073050C682C4323F002058B6832
:1032C0002B430D4DA84201D0B04205D123F0080791
:1032D000CB683B4323F00403A84201D0B04205D1A0
:1032E0004D6922F4407215438A692A434260846121
:1032F000496841630362F0BD002C01400034014085
:10330000F0B5026A22F010020262026A4368846920
:103310000D6824F4E64444EA05248D6822F0200276
:1033200042EA05120F4D104EA84201D0B04206D11C
:10333000CF6822F0800242EA071222F04002A8423F
:1033400001D0B04207D14D6923F4406343EA8503BD
:103350008D6943EA85034360846149688163026241
:10336000F0BD0000002C014000340140F0B5026ABD
:1033700022F480720262026A4368C46922F4007215
:1033800024F073050C68124E2C438D6842EA052226
:103390000E4DA84201D0B04206D1CF6822F400629F
:1033A00042EA072222F48062A84201D0B04207D14B
:1033B0004D6923F4405343EA05138D6943EA05132D
:1033C0004360C4614968C1630262F0BD002C0140E2
:1033D0000034014030B5026A22F480520262046A6D
:1033E0004268C3690D6823F4E64343EA05238D6808
:1033F00024F4005444EA0534084DA84202D0084D94
:10340000A84204D14D6922F4804242EA851242600A
:10341000C36149680164046230BD0000002C0140B2
:103420000034014010B5036A046A24F00104046208
:10343000846924F0F00444EA021423F00A020A43E7
:103440008461026210BD000070B5046A24F00104BA
:1034500004628469056A124EB0420ED0114EB04229
:103460000BD0B0F1804F08D00F4EB04205D00F4EB8
:10347000B04202D00E4EB04203D124F003041443F4
:1034800001E044F001041A0724F0F00444EA126257
:1034900025F00A0301F00A0119438261016270BD3F
:1034A000002C0140003401400004004000080040AE
:1034B000000C004010B5036A23F010030362836917
:1034C000046A23F4704343EA023224F0A00343EA7F
:1034D00001118261016210BD30B5046A24F010044C
:1034E00004628469056A24F4407444EA022222F4E6
:1034F00070444FF6FF7202EA03322243A02425F003
:10350000A00304EA011119438261016230BD000089
:103510002DE9F34F04464FF00008C0798FB0C14643
:10352000AF4D42F2107B1C2879D10021204600F0DB
:10353000C7F907460121204600F0C2F9552F6AD18C
:10354000AA2868D10221204600F0BAF98246032158
:10355000204600F0B5F90746BAF1FE0F6ED11C2FD8
:103560006CD82068FFF74EFD206800F0E5FBE1799C
:10357000B81D814245D320684169594541D804218D
:10358000204600F09DF90C902068FFF757FD0026BB
:1035900007F1030A08E0B01CC1B2204600F090F920
:1035A000761C88EA0008F6B25645F4D3B61CF1B290
:1035B000204600F085F9B8F1000F01D1F02806D0BF
:1035C0000121204600F07CF90C98287027E00421A6
:1035D000204600F009F900260DF1180806E0204603
:1035E00000F025F908F80600761CF6B2BE42F6D3C4
:1035F0000221204600F0F8F8109A06A920469047CC
:10360000E2E7E079B61DB04209D8206842695A4520
:1036100005D3FFF713FD0121204600F0E5F8E0791E
:103620000C287CD10021204600F04AF906460121F1
:10363000204600F045F9552E05D0C7E0012120466F
:1036400000F03EF9EBE7AA286AD10221204600F0FB
:1036500037F907460321204600F032F90646FE2FCF
:1036600073D10A2E71D82068FFF7CCFC206800F0D7
:1036700063FBE179B01D814268D321684A695A45EC
:1036800064D80421204600F01BF98246052120461B
:1036900000F016F983460621204600F011F90C903F
:1036A0000721204600F00CF90821204600F008F917
:1036B00005902068FFF7C2FC002706F1030808E028
:1036C000B81CC1B2204600F0FBF87F1C89EA000953
:1036D000FFB24745F4D3BF1CF9B2204600F0F0F822
:1036E000B9F1000F01D1F02831D00121204600F0BE
:1036F000E7F83C4A022301210020BAF1010F40D033
:10370000BAF1020F43D012684FF4FA745463E871AF
:103710005A46BBF1010F40D0022A40D001E011E02F
:1037200054E0BBF1030F3CD028720C9A012A3BD025
:10373000022A3BD0032A3BD0E870059A0AB1012A3D
:1037400039D0687211B0BDE8F08F44E035E0042153
:10375000204600F049F800270DF1240806E0204635
:1037600000F065F808F807007F1CFFB2B742F6D3F7
:103770000221204600F038F8109A09A92046904707
:10378000B7E712684FF47A745463E971C0E71268BE
:103790004FF4FA645463EB71BAE72972C5E72B72F0
:1037A000C3E703222A72C0E7E970C6E7EB70C4E7FB
:1037B0001022EA70C1E76972C4E7E1798142C1D899
:1037C000206842695A45BDD3FFF738FC01212046E5
:1037D00000F00AF8B6E70121204600F071F8B1E7E1
:1037E0007C02002090000020C37902698B4212689D
:1037F00008D3D36823F02003D360C279521A07E0BC
:1038000081717047D16821F02001D160C179002217
:10381000C27102691268D36843F02003D3608279D1
:10382000114402798A42EBD8891A89B2E8E7827991
:10383000C168895CC279BAB18279521CD2B28271F4
:1038400003799A4201D10022827102691268D36819
:1038500023F02003D360C279521EC2710069006850
:10386000C26842F02002C260084670470279C379FC
:103870009342FCD002691268D36823F08003D360BE
:10388000C2793AB9026912681368DB431B0601D496
:1038900051600EE04379C268D1544179491CC9B2E4
:1038A00041710279914201D100214171C179491CD4
:1038B000C17100690068C16841F08001C160704752
:1038C000C2798A4207D38279114402798A4203D8A5
:1038D000891A89B200E00021C068405C704700008E
:1038E00010B590F83910222903D0322901D00220D6
:1038F00010BD8168B1F5805F11D0016900290168B0
:103900001FD0496801F07F03816A4A1C82620B70F4
:10391000C18D491E0904090CC18518D030E0026927
:10392000816A002A0268526805D0D2B20A80816A90
:10393000491C8162ECE7C2F308020A80816A891C93
:10394000F7E74A68816A4B1C83620A70E0E7016806
:10395000CA6822F02002CA6090F83910322911D0CA
:103960000168CA6822F48072CA6001684A6922F05C
:1039700001024A615FF0010180F83910FFF77EF81B
:10398000002010BD1221F7E710B5016909680A6827
:10399000D243920610D4CA6892060DD54A680968C7
:1039A000D2B2C179491CCBB2C37104790021A342C0
:1039B00003D9C1710121017210BD4479C3681A5540
:1039C0004279521CD2B2427103799A42F4D34171C6
:1039D00010BD00002DE9F041044600680169E2686D
:1039E00021F44051114301612169A06808436169D4
:1039F00008432168CA6841F20C639A430243CA60D3
:103A000020684169A26921F44071114341614C4928
:103A100020686425322688423CD1FDF7EDFF00EB9B
:103A2000C00101EB001061688900B0FBF1F7FDF700
:103A3000E3FF00EBC00101EB00106168B0468900B4
:103A4000B0FBF1F0B0FBF5F06FF01801484307EB65
:103A5000800106EB0110B0FBF5F000F0F006FDF779
:103A6000CBFF00EBC00101EB001061688900B0FBE7
:103A7000F1F0B0FBF5F006EB0016FDF7BDFF00EB33
:103A8000C00101EB001061688900B0FBF1F7FDF7A0
:103A9000B3FF3BE0FDF798FF00EBC00101EB001026
:103AA00061688900B0FBF1F7FDF78EFF00EBC00104
:103AB00001EB00106168B0468900B0FBF1F0B0FB8B
:103AC000F5F06FF01801484307EB800106EB011099
:103AD000B0FBF5F000F0F006FDF776FF00EBC0015B
:103AE00001EB001061688900B0FBF1F0B0FBF5F06C
:103AF00006EB0016FDF768FF00EBC00101EB0010BC
:103B000061688900B0FBF1F7FDF75EFF00EBC001D3
:103B100001EB001061688900B0FBF1F0B0FBF5F03B
:103B20006FF01801484307EB800108EB0110B0FB70
:103B3000F5F0216800F00F0030448860BDE8F081A6
:103B40000038014090F83910122903D0322901D0F1
:103B5000022070478168B1F5805F016A0BD04A1C72
:103B60000262026809785160C18C491E0904090C7F
:103B7000C1840ED017E009880268C1F308015160C2
:103B800001690029016A02D0491C0162ECE7891C25
:103B9000FBE70168CA6822F08002CA600068C16859
:103BA00041F04001C16000207047016882B00A689E
:103BB00012F0010FCA6802F4807207D032B10A68AD
:103BC0004A680092C26B42F00102C2630A68C2F303
:103BD000400232B10A684A680092C26B42F00402A5
:103BE000C2630A68C2F3800232B10A684A6800926E
:103BF000C26B42F00202C2630A68C2F3C00232B171
:103C00000A6849680091C16B41F00801C163C16B4A
:103C1000002905D0012180F8391002B0FEF7FCBD63
:103C200002B07047016909680A68D243120619D4C4
:103C3000CA68120616D56FF080020A60C17991B188
:103C4000C179491EC1718279C168895C02691268B3
:103C500051608179491CC9B281710279914201D3C5
:103C600000218171704700690068C16821F08001FE
:103C7000C16070472DE9F0471D4690460E46044648
:103C8000FDF780FB07465FEA08004FF000094FF0A0
:103C9000010808D030E0681C05D095B1FDF772FB33
:103CA000C01BA8420DD82068006836EA0000F2D197
:103CB00027E0681C20D025B1FDF764FBC01BA8429B
:103CC0001AD92068C16821F08001C1602068C168EC
:103CD00021F02001C1602068C16821F48071C160B9
:103CE0002068416921F00101416184F8398084F83C
:103CF00038900320BDE8F0872068006836EA0000AD
:103D0000D7D00020F6E700000148FEF787BD00008D
:103D10007401002010B50548FFF784FF0448FFF741
:103D200033FEBDE810400348FFF73FBF3C000020D2
:103D300028000020B401002070B500250446C560AD
:103D40000078012803D0022813D0656170BDFDF70B
:103D500019FBA0606168884201D1E56005E0A0EB35
:103D6000010001D8A0F10100E060D4E9031008448B
:103D700000E02069606170BDFEE7FEE7014A02498C
:103D800000F013B8CD3D00085000002002E008C844
:103D9000121F08C1002AFAD170477047002001E0C5
:103DA00001C1121F002AFBD170472DE9F0411646D0
:103DB0000F460446002503E03946B047641C6D1CDD
:103DC00020780028F8D12846BDE8F08113B54FF6D9
:103DD000FF73012269460248FEF752FE00981CBD9F
:103DE000B4010020FDF76EFBFFF743F9FEF7FEFE7E
:103DF000FEF7DEFEFFF726F8FFF74AF8FEF7A8FE0B
:103E0000FEF750FFFEF7E0FFFEF722FFFEF7A2FFEE
:103E1000FFF790F903A0FFF7B1FF0120FFF7B2F918
:103E2000FBE7000052756E6E696E67200A0D000098
:103E3000000000000000000001020304060708095A
:103E40000000000001020304683E0008000000209A
:103E5000540000008C3D0008BC3E000854000020C7
:103E6000A40600009C3D00080000000000A24A04D7
:103E70000000000000000000000000000000000042
:103E80000000000000000000000000000000000032
:103E9000880200201E00000000000000B802002080
:103EA000B4010020A00200201E000000000000005D
:0C3EB000D6020020B40100200000000039
:0400000508000131BD
:00000001FF
