:020000040800F2
:100000003008002045010008DF300008612B00089F
:10001000DD3000084B050008194100080000000011
:10002000000000000000000000000000C9310008CE
:1000300095050008000000009D3100086D320008A1
:100040005F0100085F0100085F0100085F01000810
:100050005F0100085F0100085F0100085F01000800
:100060005F0100085F0100085F0100085F010008F0
:100070004D050008590500086505000871050008D0
:100080007D05000889050008810400085F0100085B
:100090005F0100085F0100085F0100085F010008C0
:1000A0005F0100085F0100085F0100085F010008B0
:1000B0005F0100085D340008693400085F01000832
:1000C0005F0100085F0100085F0100085F01000890
:1000D0005F0100089D400008A9400008B5400008E5
:1000E0005F0100085F0100085F0100085F01000870
:1000F0005F0100085F0100085F0100085F01000860
:100100005F0100085F0100085F0100085F0100084F
:100110005F0100085F0100085F0100085F0100083F
:100120005F0100085F0100085F0100085F0100082F
:10013000DFF80CD000F082F9004800475141000878
:10014000300800200648804706480047FEE7FEE7E3
:10015000FEE7FEE7FEE7FEE7FEE7FEE7FEE7FEE777
:10016000F532000831010008202A04DB203A21FA88
:1001700002F00021704721FA02F3D040C2F12002C0
:1001800091400843194670472DE9FE4F81EA030468
:1001900004F0004421F0004100944FF0000B23F0E4
:1001A000004350EA01045ED052EA03045BD0C3F37B
:1001B0000A54C1F30A552C44A4F2F3340194A0FB71
:1001C0000254C1F3130141F48011C3F3130343F448
:1001D000801301FB024400FB034E840A970A44EAA1
:1001E000815447EA8357A4FB076802958D0A05FBF3
:1001F00007854FEA932C04FB0C542705029D4FEA18
:10020000065847EA1637B5EB08056EEB070C870E64
:10021000920E47EA811742EA8312A7FB0201B6EB6E
:100220000B0164EB00042B0D43EA0C335E1844EB26
:100230001C50DA465146E7FB0201C5F313044FEAAE
:100240000B3343EA14534FEA0432019C43EA06039A
:10025000A4F10C040294009CCDE900B400F0A0F8D5
:1002600003B0BDE8F08F00200146F9E770B521F03A
:10027000004303430CD0C1F30A550024D5EB040519
:1002800064EB0403D617AD1AB34102DB002001462C
:1002900070BD201841EB025170BD0EB540F23341E4
:1002A00002910021CDE900110A460B4600F078F8D2
:1002B00003B000BD20F00040C10DC0F3160040F4B3
:1002C00000007F2901DA00207047962903DCC1F184
:1002D0009601C840704796398840704701F0004346
:1002E00030B421F0004150EA010206D00A0DA2F517
:1002F0006072C1F31301002A02DC30BC0020704799
:10030000440F44EAC104C100E01830BC00EBC25005
:10031000AFF300800029A8BF7047401C490008BF08
:1003200020F00100704710B4B0FA80FC00FA0CF025
:1003300050EA010404BF10BC704749B1CCF120045D
:1003400021FA04F411FA0CF118BF012121430843EA
:10035000A3EB0C01CB1D4FEA00614FEA102042BF16
:10036000002010BC704700EBC35010440029A4BF0C
:1003700010BC7047401C490008BF20F0010010BCB1
:10038000704710B5141E73F1000408DA401C41F1E7
:10039000000192185B411A4301D120F0010010BD09
:1003A0002DE9F04D92469B4611B1B1FA81F202E07F
:1003B000B0FA80F22032904600F052F804460F4620
:1003C00040EA0A0041EA0B0153465A46084313D05B
:1003D000114653EA010019D0C8F140025046FFF718
:1003E000C3FE05460E4650465946424600F038F8D0
:1003F000084305D0012004E020463946BDE8F08DD1
:100400000020054346EAE0762C4337430A9863050B
:10041000E40AA0EB08000022FD0A44EA47540A302F
:1004200002D500200146E9E7010510196941DDE91F
:10043000084500196941BDE8F04DA2E7064C074D9B
:1004400006E0E06840F0010394E8070098471034A4
:10045000AC42F6D3FFF770FEAC410008CC41000877
:10046000202A04DB203A00FA02F100207047914074
:10047000C2F1200320FA03F31943904070470000B3
:10048000014800F0EDB900004801002070B50446B5
:1004900000688168C943C9071CD1816821F0010146
:1004A000816000F0A1FF05460FE000BF00F09CFF57
:1004B000401B022809D9A06A40F01000A062E06A3F
:1004C00040F00100E062012070BD20688068C043F8
:1004D000C007EBD0002070BDF8B50026044600969A
:1004E00000688168C943C90728D0816841F00101CB
:1004F0008160134813490068B0FBF1F000E0401E32
:1005000000900028FBD100F06FFF054611E000BF0E
:1005100000F06AFF401B02280BD9A06A40F01000CF
:10052000A062E06A40F00100E06284F824600120EB
:10053000F8BD20688068C043C007E9D10020F8BD3D
:100540000400002040420F007047FEE7014800F021
:10055000C1BB000050030020014800F0BBBB0000FD
:1005600018030020014800F0B5BB00007002002015
:10057000014800F0AFBB000038020020014800F045
:10058000A9BB0000A8020020014800F0A3BB0000A6
:10059000E00200207047002000BF00BF00BF00BF86
:1005A000401C0528F8DB7047002000BF00BF00BFDB
:1005B00000BF401C0B28F8DB7047002000BF00BFC5
:1005C00000BF00BF401C1828F8DB704710B5094871
:1005D00000F020FB3221074800F084FA054800F0C3
:1005E0003AF9054C800503D5024800F036F96080E1
:1005F000608810BD480100200800002070B500256B
:1006000006462C4605E000BFFFF7E0FF641C0544EA
:10061000E4B2B442F8D3B5FBF6F080B270BD00008E
:10062000F8B500250446009590F82400012808D06C
:10063000012084F824002046FFF728FF060002D09E
:100640004BE00220F8BDA06A20F4885040F0020080
:10065000A062022000F078FF22490968B1FBF0F0A7
:10066000400000E0401E00900028FBD12046FFF72C
:1006700033FF2068816841F00801816000F0B4FE1A
:10068000074604E000F0B0FEC01B0A2811D820681D
:1006900080680007F6D42068816841F00401816019
:1006A00000F0A2FE07460EE000F09EFEC01B0A28E6
:1006B00009D9A06A20F0020040F01000A06284F87E
:1006C00024500120F8BD206880684007ECD4A06A5F
:1006D00020F0020040F00100A06284F8245030466F
:1006E000F8BD00000400002070470000F8B50025A8
:1006F000009590F82420AE46012A1ED0012280F8F1
:1007000024204A681F244FF47873072A17D20668FA
:10071000776B93FAA3FCBCFA8CFC521E02FB0CFC18
:1007200004FA0CF4A74393FAA3F3B3FA83F30C6827
:100730005A439440274377632DE00220F8BD0668B2
:100740000D2A14D2376B93FAA3FCBCFA8CFCD21F8F
:1007500002FB0CFC04FA0CF4A74393FAA3F3B3FADC
:1007600083F30C685A4394402743376313E0F76AD6
:1007700093FAA3FCBCFA8CFC0D3A02FB0CFC04FAC5
:100780000CF4A74393FAA3F3B3FA83F30C685A4328
:1007900094402743F7620A683823072406680A2A28
:1007A00014D3F76893FAA3FCBCFA8CFC0A3A02FB58
:1007B0000CFC04FA0CF4A74393FAA3F3B3FA83F303
:1007C0008C685A4394402743F76012E0376993FAE4
:1007D000A3FCBCFA8CFC02FB0CFC04FA0CF4A7434F
:1007E00093FAA3F3B3FA83F38C685A4394402743F4
:1007F00037610A68102A01D0112A20D1124B0268F1
:100800009A4217D193681B0219D4936843F40003EA
:1008100093600968102912D10C490D4A0968B1FB8F
:10082000F2F101EB8101490000E0491E009100292D
:10083000FBD104E0816A41F020018162012580F84A
:1008400024E02846F8BD00000024014004000020F8
:1008500040420F007047806A70470068C06C704764
:1008600010B5044600684168890626D501688907E5
:1008700023D5A16AC90603D4A16A41F40071A1621B
:100880008168C1F34241072910D1E16871B941681B
:1008900021F020014160A06A20F48070A062A06A6B
:1008A000C00403D4A06A40F00100A0622046FFF714
:1008B000D1FF21686FF012000860206841680906C6
:1008C0002ED5016849072BD5A16AC90603D4A16AB0
:1008D00041F40051A1628168C1F30231072909D0B6
:1008E0004168490515D48168C1F34241072910D1F7
:1008F000E16871B9416821F080014160A06A20F48B
:100900008050A062A06AC00503D4A06A40F0010034
:10091000A0622046FFF7E8FE21686FF00C00086037
:100920002068416849060DD50068C0070AD0A06A52
:1009300040F48030A062204600F0AAF821686FF0F1
:100940000100086010BD00002DE9F04104004FF0E7
:10095000000503D0A06A002618B108E00120BDE818
:10096000F081E66284F82460204600F093F8204687
:10097000FFF78CFD0146A06A00F01002A06A0A434E
:1009800003D040F01000A06279E020F4885040F0DD
:100990000200A0623B4823688342E06904D1B0F5BD
:1009A000402F01D14FF40020022292FAA2F2E76810
:1009B000B2FA82F207FA02F2104362684FF4807CC6
:1009C0001043A268624509D0012A07D05FF00002F7
:1009D000D4F814E0BEF1010F02D00AE06246F7E756
:1009E000C7B1A76A47F02007A762E76A47F0010787
:1009F000E7625F6827F4694717435F60226893687E
:100A0000214F3B4003439360A268624510D0012A06
:100A10000ED016E04FF4604EA7699EFAAEFEBEFA05
:100A20008EFE7F1E07FA0EF7174347F40062E0E7D9
:100A30004FF47002256992FAA2F2B2FA82F26D1EA8
:100A400095402268D36A23F470032B43D362226853
:100A500092680E4B1A40824207D1E662A06A20F0EB
:100A6000020040F00100A0620AE0A06A20F002004B
:100A700040F01000A062E06A40F00100E062012155
:100A800008466CE7003C0140FDF7E1FFFE0E1FFF4A
:100A90007047000000B500680F4985B0884218D142
:100AA0000E48816941F4007181618069694600F4F2
:100AB000007004902020009003200190084800F06E
:100AC00099FB00221146122000F00CFD122000F0CC
:100AD000FDFC05B000BD00000024014000100240F4
:100AE000001001402DE9F84300260D46044600960B
:100AF00000F07AFC804620688168C90508D5A06AA4
:100B000040F02000A06284F824600120BDE8F88352
:100B10004168C90503D4C06A10F4700F26D00220C2
:100B200000F012FD38490968B1FBF0F7206803694D
:100B300036490B424FEA61014FEAA1121BD1C3684B
:100B40004FEA611C13EA0C0F15D103690B4221D146
:100B5000C06810421ED114201FE0681C06D045B3A7
:100B600000F042FCA0EB0800A84222D820680068F0
:100B70008007F2D52AE003690B4202D1C168114215
:100B800006D0026922490A4206D1C068084203D150
:100B9000542002E0292000E0FC204743009813E0A5
:100BA000681C0ED02DB100F01FFCA0EB0800A8427D
:100BB00007D9A06A40F00400A06284F824600320F2
:100BC000A4E70098401C0090B842E9D321686FF078
:100BD00012000860A06A40F40070A062206880687B
:100BE000C0F3424007280CD1E06850B9A06A20F455
:100BF0008070A062A06AC00403D4A06A40F0010023
:100C0000A062002082E70000040000202449922412
:100C10004992240070B5044690F8240001280DD0B4
:100C2000012084F824002046FFF756FC02004FF014
:100C3000000005D084F82400104670BD022070BD6D
:100C4000A16A40F20123994341F48071A1621F4DD2
:100C500023681F49AB4218D10E6816F4702F14D0C8
:100C6000A66A46F48016A6620E68760505D5A66AC1
:100C700026F4005646F48056A662A66AF6040AD503
:100C8000E66A26F00606E66206E0A66A26F4801604
:100C9000A6625E68E9E7E06284F824006FF0020073
:100CA000186020688368C3F34243072B05D1A8422C
:100CB00008D1096811F4702F04D0816841F48011C3
:100CC0008160B9E7816841F4A001F9E7002801409B
:100CD000042401402DE9F05F0446F94AF84DF84E2E
:100CE000F74F0068DFF8D893DFF8D4A3DFF8D0B36C
:100CF000D114783D643E503F4FF4000E4FF4004C49
:100D00004FF40028A9F13C09AAF1280AABF1140B11
:100D1000904221D9EB4A1368A8420FD0B0420FD0BD
:100D2000B84213D0484513D0504513D0584501D18F
:100D3000724624E0E34A083290423CD108221EE089
:100D400080221CE0DF4A3032904239D10A4616E058
:100D5000624614E0424612E0D94A803A1368A8423B
:100D6000ECD0B042ECD0B842F0D04845F0D050457D
:100D7000F0D05845DCD0D24A9042DBD10205134274
:100D800079D00268D243120775D4026822F00802B3
:100D90000260CB4A2068904232D9A84219D0B042B2
:100DA0001DD0B84228D0484523D0504523D05845BF
:100DB0000BD1714620E0C34A1C329042C2D1BFE73A
:100DC000C04A44329042C5D1C2E7BE4A083290427E
:100DD00001D1082110E0BB4A1C32904201D1802190
:100DE0000AE0B84A3032904206D0B64944318842CF
:100DF00001D1614600E04146B248001D01602CE08F
:100E0000A84214D0B04218D0B84223D048451ED0D2
:100E100050451ED0584501D171461BE0904202D189
:100E20004FF0006116E0A74A0832904201D1082134
:100E300010E0A44A1C32904201D180210AE0A14A6C
:100E40003032904206D09F494431884201D16146F8
:100E500000E041469A4880384160606B40F00100F4
:100E60006063042084F82100002084F82000216BB6
:100E700009B120468847924A206811154FF4800E28
:100E80004FF4804C4FF48028904221D98D4A13684A
:100E9000A8420FD0B0420FD0B84213D0484513D06B
:100EA000504513D0584501D1724624E0854A083296
:100EB00090423FD104221EE040221CE0814A3032A1
:100EC00090423CD10A4616E0624614E0424612E0E7
:100ED0007B4A803A1368A842ECD0B042ECD0B842CA
:100EE000F0D04845F0D05045F0D05845DCD0744A99
:100EF0009042DBD1C204134275D00268D24352073C
:100F000071D40268920603D4026822F004020260DF
:100F10006B4A2068904232D9A84219D0B0421DD005
:100F2000B84228D0484523D0504523D058450BD14E
:100F3000714620E0634A1C329042BFD1BCE7614A4F
:100F400044329042C2D1BFE75E4A0832904201D19A
:100F5000042110E05B4A1C32904201D140210AE09A
:100F6000584A3032904206D056494431884201D125
:100F7000614600E041465348001D01602CE0A84254
:100F800014D0B04218D0B84223D048451ED05045A6
:100F90001ED0584501D171461BE0904202D14FF05E
:100FA000806116E0474A0832904201D1042110E0E6
:100FB000444A1C32904201D140210AE0414A303279
:100FC000904206D03F494431884201D1614600E059
:100FD00041463B4880384160112084F82100E16A95
:100FE00009B120468847364A206851154FF4005C05
:100FF0004FF4003E904228D9324B1B68A84212D0D1
:10100000B04213D0B8421AD048451AD050451AD031
:10101000584502D14FF400182AE0DFF8A88008F103
:101020000808404544D14FF0020821E04FF0200865
:101030001EE0DFF8908008F13008404544D1884632
:1010400016E0E04614E0F04612E01D4B803B1B68C2
:10105000A842E8D0B042E9D0B842F0D04845F0D03C
:101060005045F0D05845D5D09042D6D14FF00078B9
:1010700013EA080F70D00368DB439B077FD4036833
:101080009B0603D4036823F00203036020689042A8
:1010900039D9A84221D0B04225D0B8422FD04845F6
:1010A0002AD050452AD0584513D14FF4001126E0DC
:1010B000DFF8108008F11C084045BAD1B6E70000FF
:1010C0008000024000040240DFF8B8804045BAD1F9
:1010D000B7E72C4A3C3A904201D102210FE0294A5D
:1010E000283A904201D1202109E0264A143A904240
:1010F00005D02449884201D1614600E0714621486B
:10110000403801602CE0A84215D0B04219D0B84256
:1011100024D048451ED050451FD0584502D14FF429
:1011200000111BE0904202D14FF0007116E0154A09
:101130003C3A904201D1022110E0124A283A9042F2
:1011400001D120210AE00F4A143A904206D00D49FD
:10115000884202D1614601E011E071460A484160CF
:10116000606B6063012084F82100002084F8200077
:10117000A16A002903D02046BDE8F05F0847BDE81A
:10118000F09F0000440402400000024070B520B10E
:1011900090F82110002411B103E0012070BD80F807
:1011A0002040022180F8211003681A6843F6F0718C
:1011B0008A43D0E901152943D0E903563543294331
:1011C0004569294385692943C56929431143196044
:1011D0004463012180F82110002070BD31B500F07A
:1011E00003F9044600F000F90099001B8842F9D386
:1011F00038BD00002DE9F84FDFF8B8A100220AF150
:10120000040B144601274FF00F090BF1040E00BF29
:101210000B6807FA04F52B40AB4274D1DFF898C194
:101220004E68A6EB0C0866452BD00DDC032E34D09F
:1012300005DC36B3012E19D0022E2FD11BE0112E62
:1012400016D0122E2AD119E0B8F5881F19D006DC65
:10125000B8F5803F15D0B8F5801F1FD111E0B8F563
:10126000001F0ED0B8F5041F18D10AE0CA6815E0B7
:10127000CA68121D12E0CA6808320FE0CA680C3250
:101280000CE08A682AB1012A4FF0080203D04561B8
:1012900004E0042202E0056100E00022FF2B01D8F7
:1012A000064601E000F104064FEA840501D9A5F1E4
:1012B0002005D6F800C009FA05F82CEA080C02FA55
:1012C00005F54CEA050CC6F800C04D68ED006AD57E
:1012D0003A4DAE6946F00106AE61AD6924F00306F1
:1012E00005F001050095364D06EB050CDCF80850BD
:1012F000A6074FEA167809FA08F6B543314EB04210
:1013000002D100261AE04EE02F4EB04201D1012654
:1013100014E02E4EB04201D102260FE02C4EB04216
:1013200001D103260AE02B4EB04201D1042605E08C
:10133000294EB04201D1052600E0062606FA08F63D
:101340002E43CCF808604D68DAF80060ED0355468E
:1013500001D51E4300E09E432E604D68AD0305D5C8
:10136000DBF800601E43CBF8006004E0DBF80050BF
:101370009D43CBF800504D68DEF80060ED027546E5
:1013800001D51E4300E09E432E604D68AD0205D599
:10139000084D0C352E681E432E6004E0054E0C36B9
:1013A00035689D433560641C102CFFF431AFBDE8F7
:1013B000F88F0000000401400000111000100240EE
:1013C0000000014000080140000C014000100140F5
:1013D0000014014000180140001C01400AB10161E5
:1013E00070470904FBE700000148006870470000EF
:1013F0000000002002480168491C0160704700009D
:1014000000000020074810B5016841F0100101609C
:10141000032000F087F8002000F006F800F016F82E
:10142000002010BD0020024010B5044600F066FA0E
:101430004FF47A71B0FBF1F000F0A6FD00222146D6
:10144000501E00F04FF8002010BD00001D4808B5E8
:10145000816941F001018161806900F00100009023
:10146000032000F05FF8002211466FF00B0000F03F
:1014700039F8002211466FF00A0000F033F800221C
:1014800011466FF0090000F02DF800221146501FA0
:1014900000F028F800221146101F00F023F8002267
:1014A0001146901E00F01EF800221146501E00F05A
:1014B00019F80548416821F0E06141F00071416090
:1014C00008BD0000001002400000014000F01F02B3
:1014D000012191404009800000F1E020C0F8001196
:1014E00070470000F0B40E4B1B680C46C3F3022398
:1014F000C3F10705042D00D90425191D072901D2C0
:10150000002300E0DB1E012606FA05F1491E2140FA
:1015100099409E40761E16403143F0BC01F0E0BD7C
:101520000CED00E0064900F0070208684FF6FF03E3
:10153000184040EA0220034A104308607047000048
:101540000CED00E00000FA0510B537A401461DCCF3
:1015500086B08DE81D0038A0384C0068049000204B
:10156000042944D012DC012944D002293DD100F0E5
:10157000E3F961684FF4804292FAA2F201F440412B
:10158000B2FA82F2D140491C49002CE008292ED041
:1015900010292AD161682268D20126D54FF4701231
:1015A00092FAA2F201F47010B2FA82F2D040C903AA
:1015B0001DF8000010D561684FF4003292FAA2F2D3
:1015C00001F40031B2FA82F2D14004AA515C1C4A03
:1015D000B2FBF1F1484301E01A494843616849020E
:1015E00003D440000321B0FBF1F006B010BD00F0C1
:1015F000BBF9FAE7226AC2F30121012903D192075C
:1016000001D5C803F1E7022905D1626A920702D524
:1016100049F64040E9E70329E7D121688903E4D589
:101620004FF22440E1E70000020304050607080921
:101630000A0B0C0D0E0F10100102000000100240EA
:1016400000127A0000093D002DE9F84305460078B4
:10165000454CC00774D0E06940F08050E061E0691B
:10166000424E00F080500090306840F4807030604E
:10167000FFF7BAFE074604E0FFF7B6FEC01B64287A
:1016800033D83068C005F7D5206A10F4407051D0C7
:10169000A98801F4407181424CD0206A01263104AE
:1016A00091FAA1F2B2FA82F29300314A20F440702A
:1016B0001344C3F8006491FAA1F1B1FA81F102EB8D
:1016C00081010023C1F800342062C00732D0FFF747
:1016D0008BFE074641F288394FF0020808E000BF50
:1016E000FFF782FEC11B494502D90320BDE8F883FC
:1016F00098FAA8F1B1FA81F141F040014046B6EB09
:10170000511F01D121680BE090FAA0F1B1FA81F1EB
:1017100041F04001B0EB511F01D1216A00E0616A44
:1017200098FAA8F0B0FA80F000F01F0206FA02F072
:101730000142D5D0206A696820F4407008432062D5
:101740002878800705D56068A96820F440400843E0
:1017500060602878C00605D56068696920F480005B
:10176000084360600020C1E70010024000700040A4
:10177000000042422DE9F047DFF8708105460E4631
:10178000D8F8000000F00700B0420CD2D8F80010E2
:1017900021F007013143C8F80010D8F8000000F02C
:1017A0000700B04277D12878514C800705D5606892
:1017B000A96820F0F000084360602878C00759D07D
:1017C0006968012001290DD0022929D05FF00203A8
:1017D00093FAA3F2B2FA82F242F02002520904D044
:1017E000226803E04FF40033F2E7626A93FAA3F34E
:1017F000B3FA83F303F01F03984002424BD06068B2
:1018000020F0030008436060FFF7EEFD69680746BB
:1018100041F2883001290DD00229814617D025E0F8
:101820004FF00073D4E700BFFFF7DEFDC11B494551
:1018300001D918E081466068C0F381000128F3D126
:1018400018E000BFFFF7D0FDC11B49450BD8606809
:10185000C0F381000228F5D10CE000BFFFF7C4FD02
:10186000C11B494502D90320BDE8F087606810F02C
:101870000C0FF3D1D8F80010404601F00701B14237
:101880000BD9016821F0070131430160006800F0C5
:101890000700B04201D00120E6E72878400705D5CF
:1018A0006068E96820F4E060084360602878000719
:1018B00006D56068296920F4605040EAC100606084
:1018C00000F052F86168F02292FAA2F201F0F00101
:1018D000B2FA82F2D140074A515CC840064908601A
:1018E0000020FFF7A1FD0020BEE70000002002401D
:1018F00000100240924100080400002001480068E6
:101900007047000004000020084809490068496841
:101910004FF4E06292FAA2F201F4E061B2FA82F2CC
:10192000D140044A515CC8407047000004000020C8
:1019300000100240A24100080848094900684968AF
:101940004FF4605292FAA2F201F46051B2FA82F2BC
:10195000D140044A515CC840704700000400002098
:1019600000100240A241000810B519A385B00FCBAA
:101970008DE80F001AA01B4B006804905A681A48A3
:1019800002F00C0104291DD008291BD14FF470145A
:1019900094FAA4F402F47011B4FA84F4E140D2038E
:1019A0001DF8011010D55A684FF4003393FAA3F3D1
:1019B00002F40032B3FA83F3DA4004AB9A5CB0FB72
:1019C000F2F0484305B010BD08484843FAE700006C
:1019D00002030405060708090A0B0C0D0E0F101070
:1019E000010200000010024000127A0000093D00D0
:1019F0002DE9F84F04460078F74DC0074FF0010677
:101A000025D068687704C0F38100012807D0686892
:101A1000C0F3810002281BD16868C00318D597FA6B
:101A2000A7F0B0FA80F040F02000400901D028680B
:101A300000E0686A97FAA7F1B1FA81F101F01F019D
:101A400006FA01F108425ED0606800287CD05AE0B6
:101A50006068B0F5803F0BD010B1B0F5A02F11D069
:101A6000286820F480302860286820F4802002E074
:101A7000286840F480302860606828B3FFF7B4FC21
:101A800080460BE0286840F480202860F0E700BF23
:101A9000FFF7AAFCA0EB0800642871D897FAA7F01A
:101AA000B0FA80F040F02000400901D0286800E042
:101AB000686A97FAA7F1B1FA81F101F01F0106FAFD
:101AC00001F10842E4D01EE0FFF78EFC804605E0FD
:101AD000FFF78AFCA0EB08006428DED897FAA7F08D
:101AE000B0FA80F040F02000400901D0286800E002
:101AF000686A97FAA7F1B1FA81F101F01F0106FABD
:101B000001F10842E4D12078DFF8D08280074FF05D
:101B100000094FF002075BD568684FF0F80B10F032
:101B20000C0F07D06868C0F3810002281CD16868D8
:101B3000C00319D497FAA7F0B0FA80F040F0200063
:101B4000400902D0286801E08BE0686A97FAA7F1A3
:101B5000B1FA81F101F01F0106FA01F108422CD01F
:101B6000206901287DD128E0206990B396FAA6F07B
:101B7000B0FA80F048F82060FFF736FC824607E0B4
:101B800011E100BFFFF730FCA0EB0A00022884D867
:101B900097FAA7F0B0FA80F040F02000400901D099
:101BA000286800E0686A97FAA7F1B1FA81F101F0BC
:101BB0001F0106FA01F10842E4D028689BFAABF253
:101BC0006169B2FA82F220F0F8009140084328607F
:101BD00025E0FFE796FAA6F1B1FA81F148F82190E5
:101BE000FFF702FC824605E0FFF7FEFBA0EB0A00D0
:101BF0000228CCD897FAA7F0B0FA80F040F0200085
:101C0000400901D0286800E0686A97FAA7F1B1FAA4
:101C100081F101F01F0106FA01F10842E4D12078B8
:101C200000076ED5A069B8B396FAA6F0B0FA80F0B6
:101C300008EB8000C0F88064FFF7D6FB824605E021
:101C4000FFF7D2FBA0EB0A000228A0D897FAA7F072
:101C5000B0FA80F040F06000B6EB501F02D1286867
:101C60000CE062E197FAA7F0B0FA80F040F0600073
:101C7000B7EB501F01D1286A00E0686A97FAA7F114
:101C8000B1FA81F101F01F0106FA01F21042D7D03A
:101C90000120FFF7A3FA34E0FFE796FAA6F1B1FAC4
:101CA00081F108EB8101C1F88094FFF79DFB82462A
:101CB00006E000BFFFF798FBA0EB0A00022872D8ED
:101CC00097FAA7F0B0FA80F040F06000B6EB501F32
:101CD00001D128680BE097FAA7F0B0FA80F040F045
:101CE0006000B7EB501F01D1286A00E0686A97FADC
:101CF000A7F1B1FA81F101F01F0106FA01F21042D9
:101D0000D8D12078400765D5E86940F08050E86177
:101D1000E869DFF8CCB000F080500090DBF80010EC
:101D200041F48071CBF80010FFF75EFB824605E0BE
:101D3000FFF75AFBA0EB0A00642834D8DBF8000058
:101D4000C005F5D5E06801280AD008B1052813D0F0
:101D5000286A20F001002862286A20F0040002E0CE
:101D6000286A40F001002862E06841F2883B90B3A5
:101D7000FFF73AFB82460BE0286A40F00400286235
:101D8000EEE700BFFFF730FBA0EB0A0159450AD888
:101D900097FAA7F0B0FA80F040F04000B6EB501F81
:101DA00002D128680CE0A3E097FAA7F0B0FA80F01F
:101DB00040F04000B7EB501F01D1286A00E0686A8C
:101DC00097FAA7F1B1FA81F101F01F0206FA02F1C8
:101DD0000842D7D031E005E0001002400000424246
:101DE00000700040FFF700FB824605E0FFF7FCFAB9
:101DF000A0EB0A0159457BD897FAA7F0B0FA80F01A
:101E000040F04000B6EB501F01D128680BE097FA74
:101E1000A7F0B0FA80F040F04000B7EB501F01D1BE
:101E2000286A00E0686A97FAA7F1B1FA81F101F037
:101E30001F0206FA02F10842D8D1E06980B369684E
:101E4000C1F38101022970D04FF080714F00022848
:101E5000484609D091FAA1F1B1FA81F148F8210080
:101E6000FFF7C2FA044669E08A4691FAA1F1B1FA95
:101E700081F1C14648F82100FFF7B6FA804605E037
:101E8000FFF7B2FAA0EB0800022854D897FAA7F09F
:101E9000B0FA80F040F02000400902D0286801E04C
:101EA00061E0686A97FAA7F1B1FA81F101F01F01C8
:101EB00006FA01F10842E3D1206AB0F5803F05D16E
:101EC0006868A16820F4003008436860D4E908011C
:101ED0000843696821F47411084368609AFAAAF00B
:101EE000B0FA80F049F82060FFF77EFA044606E079
:101EF00021E000BFFFF778FA001B02281BD897FAF1
:101F0000A7F0B0FA80F040F02000400901D0286826
:101F100000E0686A97FAA7F1B1FA81F101F01F01B8
:101F200006FA01F10842E5D01DE01EE0FFF75CFA79
:101F3000001B022802D90320BDE8F88F97FAA7F00A
:101F4000B0FA80F040F02000400901D0286800E09D
:101F5000686A97FAA7F1B1FA81F101F01F0106FA58
:101F600001F10842E2D10020E6E70120E4E74FF06A
:101F7000E0210428086903D020F0040008617047BC
:101F800040F00400FAE7704710B5401EB0F1807FC2
:101F900001D3012010BD4FF0E02460610F216017D4
:101FA00001F09EF80020A06107202061002010BDF4
:101FB00010B5FFF7E8FF10BD7047704730B590F8D7
:101FC0003820012A19D0012200F8382F022343704B
:101FD000D1E900342343D1E902452C4323430C6962
:101FE00023434C69896923430B4350F8381C4B64E5
:101FF000427000210170084630BD022030BD30B56E
:1020000090F83820012A20D0012280F838200223BD
:1020100080F8393003685C6824F070045C60036801
:102020005C680D682C435C6003689C6824F0800445
:102030009C6003689C6849680C439C6080F8392068
:10204000002180F83810084630BD022030BD10B5A0
:10205000040003D094F8390010B107E0012010BD4E
:10206000002084F83800204600F00CF8022084F8A4
:102070003900211D206801F0FDF9012084F83900A4
:10208000002010BD08B500680B49884212D10B48EA
:10209000C16941F00401C161C069002200F004007F
:1020A000009011461E20FFF71DFABDE808401E20D3
:1020B000FFF70CBA08BD0000000800400010024005
:1020C000022180F8391001680A6842F001020A60B2
:1020D000012180F83910002070470168CA6842F079
:1020E0000102CA600068016841F00101016000203E
:1020F000704770B5044690F83800012817D00125C4
:1021000084F83850022084F839002068826822F070
:10211000770222F47F4282600868502837D00DDCB5
:10212000202859D005DC88B3102841D151E0022085
:1021300070BD302853D040283AD13FE060282ED0DF
:1021400070280BD0B0F5805F03D0B0F5005F2FD1C1
:1021500010E02068816821F0070115E0CB68D1E923
:102160000121206801F0D3F92168886840F07700E8
:1021700088601DE0CB68D1E90121206801F0C7F932
:102180002068816841F48041816011E01EE0CA68E6
:102190004968206801F090FA5021206806E0CA687A
:1021A0004968206801F0D0FA6021206801F0B9F98F
:1021B00084F83950002084F8380070BDCA68496836
:1021C000206801F079FA40212068EFE700212068BB
:1021D000ECE710212068E9E720212068E6E73021BC
:1021E0002068E3E72DE9F0410026074635463146F1
:1021F000184800F0BBFA184980B28C1E488021783C
:10220000A9B1012913D1B04201D3801B85B2134873
:102210003C21B5FBF0F0B1FBF0F06422B0FBF2F131
:1022200002FB1101B0FBF2F00D4A517110713968D7
:102230006FF0020008610021064800F0E5F8207800
:10224000401CC0B22070022801D300202070BDE8DD
:10225000F0810000D00000201200002040420F005A
:10226000A00300202DE9F041044690F838000D4607
:1022700001283DD0012684F83860022084F8390016
:10228000AAB3042A46D02068082A55D0D5E90027E9
:10229000E968036A23F480530362D0F81CC0036A20
:1022A0002CF4407C4CEA07274FF6FF7C27F470475C
:1022B0000CEA013139434FF4204723F4204307EA65
:1022C00002321A43C16102622068C16921F440618F
:1022D000C1612068C169AA6841EA0221C0F81C10E6
:1022E00084F83960002084F83800BDE8F08101E00E
:1022F0000220FAE7D5E90012EB68206801F0EEF958
:102300002068816921F00C01816120688169AA68D7
:1023100011430FE0D5E90012EB68206801F026FABE
:102320002068816921F44061816120688169AA681F
:1023300041EA02218161D3E7D5E9002C2F7B016AB4
:1023400021F480710162C169036A21F0030141EA4D
:102350000C0121F0F00C39074FF420674CEA1161B1
:1023600023F4206307EA02221A43C1610262206853
:10237000C16921F00C01C1612068C169AA681143DB
:10238000ACE710B5040003D094F8390010B107E0B1
:10239000012010BD002084F83800204600F00CF821
:1023A000022084F83900211D206801F063F8012023
:1023B00084F83900002010BD00B500680F4985B0D1
:1023C000884219D10E48C16941F00201C161C0695A
:1023D000694600F002000490402000900020019027
:1023E00002900848FEF706FF002211461D20FFF765
:1023F00079F81D20FFF76AF805B000BD0004004021
:10240000001002400008014010B50268044631B1D6
:10241000042908D0082915D00C2908D116E0D06865
:1024200040F0020002E0D06840F00400D0600122D9
:10243000206801F061F82068016841F00101016045
:10244000002010BDD06840F00800EFE7D06840F0F1
:102450001000EBE770B50446006801694FF0000515
:10246000C943890715D4C168C943890711D4E91E36
:10247000016101202076206880698007204602D013
:10248000FFF7B0FE04E000F0ADF8204600F042F99E
:10249000257620680169C943490717D4C168C94333
:1024A000490713D46FF004010161022020762068EF
:1024B000806910F4407F204602D0FFF793FE04E0CD
:1024C00000F090F8204600F025F925762068016993
:1024D000C943090716D4C168C943090712D46FF06C
:1024E00008010161042020762068C0698007204629
:1024F00002D0FFF777FE04E000F074F8204600F009
:1025000009F9257620680169C943C90617D4C1684D
:10251000C943C90613D46FF0100101610820207669
:102520002068C06910F4407F204602D0FFF75AFEB1
:1025300004E000F057F8204600F0ECF8257620681B
:102540000169C943C90708D1C168C943C90704D192
:10255000891E0161204600F0FBF820680169C9432B
:10256000090609D4C168C943090605D46FF0800182
:1025700001612046FFF720FD20680169C943490633
:1025800009D4C168C943490605D46FF0400101610F
:10259000204600F00DF920680169C94389060BD473
:1025A000C168C943890607D46FF020010161204644
:1025B000BDE87040FFF701BD70BD00001FB50068A9
:1025C0000649884208D180150090022001900390AE
:1025D00069460348FEF70EFE1FBD0000002C0140B7
:1025E00000080140704770B5044690F838000D4669
:1025F00001280DD0012684F83860022084F83900C3
:1026000042B1042A18D0082A2AD00C2A4DD139E028
:10261000022070BD206800F08DFF2068816941F0C4
:10262000080181612068816921F0040181612068CD
:1026300081692A69114311E0206800F0ABFF20682E
:10264000816941F4006181612068816921F48061C0
:102650008161206881692A6941EA0221816124E05F
:10266000206800F0CDFF2068C16941F00801C16118
:102670002068C16921F00401C1612068C1692A692B
:10268000114311E0206800F0EFFF2068C16941F4B8
:102690000061C1612068C16921F48061C161206865
:1026A000C1692A6941EA0221C16184F839600020C8
:1026B00084F8380070BD10B5040003D094F83900D8
:1026C00010B107E0012010BD002084F8380020463A
:1026D00000F00CF8022084F83900211D206800F079
:1026E000C9FE012084F83900002010BD08B500683B
:1026F0000649884208D10648816941F40061816138
:10270000806900F40060009008BD0000002C0140CA
:10271000001002407047000010B504460068012216
:1027200000F0EAFE08492068884202D00749884242
:1027300003D1416C41F4004141642068016841F0DB
:1027400001010160002010BD002C01400034014057
:1027500000680449884203D103498888401C888066
:1027600070470000000400401200002090F838304C
:102770000022012B0AD0012380F8383041B104290E
:1027800009D008290AD00C290DD10AE0022070478F
:1027900001684A6B07E001688A6B04E00168CA6B54
:1027A00001E001680A6C002180F83810104670477B
:1027B0007047704738B5044600680168C26811F078
:1027C000010F02F4807204D01AB1E16B41F00101F3
:1027D000E1630168C1F34002416901F0010122B1E6
:1027E00019B1E26B42F00402E2630268C2F38002B4
:1027F00022B119B1E26B42F00202E2630268C2F355
:10280000C00222B119B1E16B41F00801E163016836
:10281000C068C1F3401100F0200019B110B120468A
:1028200001F072FA20680168C068C1F3C01100F0BD
:10283000800019B110B1204601F098FB21680868AA
:10284000CA68C0F3801002F04002012570B16AB17D
:10285000CA68204622F04002CA6094F83910322932
:1028600011D080F8395000BF00F079F9E06B0028F2
:1028700008D0206801684068009084F839502046EC
:10288000FFF797FF38BD222180F83910ECE770B5CB
:10289000040004D094F83900002510B106E00120AE
:1028A00070BD84F83850204600F020F8022084F8EB
:1028B00039002068C16821F40051C160204601F050
:1028C0009DFA2068016921F4904101612068416905
:1028D00021F02A0141612068C16841F40051C160C2
:1028E000E563012084F83900002070BD2DE9F04730
:1028F0000446DFF83482D0F800C08C48022103225D
:102900008B4B00258026202786B04FF4806A4FF03D
:102910001009C4454FD1D0F818C04CF4804CC0F811
:1029200018C08069039200F4804004900802CDE949
:102930000001694698461846FEF75CFCCDE900A503
:10294000694640460295FEF755FCDFF8EC8179496F
:102950004046C0E90015C0E90256C8F81050C8E961
:102960000557C8F81C50FEF711FC18B19C2173A044
:1029700001F0D3FB704FC4F834803837C8F82440D6
:10298000C7E902563D616B487D61BD611438FD6148
:10299000C7E900093846FEF7F9FB18B1AC2167A07A
:1029A00001F0BBFB27630022114625207C62FEF765
:1029B00099FD252059E0DFF89481C4455AD1D0F81B
:1029C0001CC04CF4003CC0F81CC0C069039200F469
:1029D000003004900420CDE900016946984618466D
:1029E000FEF708FC0820CDE90005AA4669464046E6
:1029F0000295FEF7FFFBDFF840814E4908F17008B1
:102A000040461431C0E90015C0E90256C8F810501C
:102A1000C8E90557C8F81C50FEF7B8FB18B1DA2111
:102A200046A001F07AFB444D4248C4F83480A835F2
:102A30002830C8F82440C5E90009C5E902A6C5F850
:102A400010A0C5E905A72846C5F81CA0FEF79EFB07
:102A500018B1EA2139A001F060FB2563002211467C
:102A600026206C62FEF73EFD2620FEF72FFD06B005
:102A7000BDE8F087364B9C45F9D1C36943F4802308
:102A8000C361C069CDE900A100F48020CDE9032035
:102A9000DFF8C0A069465046FEF7ACFB4FF400607B
:102AA000CDE90005A846694650460295FEF7A2FB0F
:102AB000DFF884A01F490AF1E00A50462839C0E92E
:102AC0000015C0E90256CAF81050CAE90557CAF8FD
:102AD0001C50FEF75BFB20B14FF48C7117A001F086
:102AE0001CFB14481C4DC4F834A03C38CAF82440E0
:102AF000C5E90009C5E90286C5F81080C5E9058762
:102B00002846C5F81C80FEF741FB20B14FF49471B4
:102B10000AA001F002FB25630022114627206C6207
:102B2000FEF7E0FC2720A0E700380140001002403B
:102B30000008014058000240380200202E2E2F537A
:102B400072632F75736172742E630000004400403D
:102B500000480040000C01405003002070477047BF
:102B6000FEE700002DE9F04106461248016821F019
:102B700070410160016841F0405101600E4C002736
:102B8000C4F898713D464FF00108F009C4F89C0163
:102B90007006060EFDF708FDC4F89881FDF704FDE8
:102BA000C4F89871FDF700FD6D1CEDB2082DECD353
:102BB000BDE8F081000C01400080214270B50C4856
:102BC000016821F070410160016841F040510160ED
:102BD000084C0120C4F89C01C4F8980104F5CC7499
:102BE000FDF7EBFC00256560FDF7E7FC256070BD97
:102BF000000C0140008021420D4810B5016821F011
:102C000070410160016841F040510160094C0020B1
:102C1000C4F89801C4F89C0104F5CC74FDF7CDFC10
:102C2000012020606060BDE81040FDF7C6BC0000D8
:102C3000000C01400080214270B512480024016858
:102C400021F070410160016841F0004101600E4DCA
:102C50000126C5F89C61FDF79EFCC5F89861FDF75B
:102C60009AFC07E0641CE4B2FA2C03D9FFF7C4FF16
:102C7000012070BDD5F81C010028F3D1C5F89801DA
:102C800070BD0000000C0140008021423EB512489A
:102C9000002410498460C46044610160012505611D
:102CA0004FF460214460C161FDF74EFE18B143212D
:102CB0000AA001F032FA0F20CDE90005694602941E
:102CC0000548FDF713FD002803D04D2103A001F0B6
:102CD00024FA3EBD00240140480100202E2E2F532F
:102CE00072632F6164632E63000000001D4808B505
:102CF000416941F0010141614069002200F0010099
:102D0000009011460C20FEF7EDFB0C20FEF7DEFBD9
:102D1000002211460D20FEF7E5FB0D20FEF7D6FB45
:102D2000002211460E20FEF7DDFB0E20FEF7CEFB43
:102D3000002211460F20FEF7D5FB0F20FEF7C6FB41
:102D4000002211461020FEF7CDFB1020FEF7BEFB3F
:102D5000002211461120FEF7C5FBBDE808401120F6
:102D6000FEF7B4BB001002401A4810B5816986B066
:102D700041F020018161816901F0200104918169A4
:102D800041F004018161816901F0040104918169CC
:102D900041F010018161816901F0100104918169A4
:102DA00041F00801816180690B4C00F0080004903B
:102DB0000022F0212046FEF711FBF02000900120B8
:102DC00001900220039069462046FEF713FA06B0F0
:102DD00010BD000000100240000C014010B5264854
:102DE00090B02449016047210024C0E9011444F651
:102DF0001F61C0E903144461FFF75DFC18B146216F
:102E00001EA001F08AF90E940EA91B480F94FFF73B
:102E1000F6F818B14D2119A001F07FF9602000905B
:102E20004FF4FA70CDE90104039404940594002250
:102E3000694611480694FFF7D6FB18B159210FA037
:102E400001F06BF90794089409944FF400500A9428
:102E5000CDE90B4007A908480D94FFF7AFF818B16A
:102E6000652106A001F059F90348FFF7A7FB10B050
:102E700010BD0000002C0140940000202E2E2F5386
:102E800072632F74696D2E630000000010B518483E
:102E900086B04FF08041016047210024C0E9011451
:102EA0004FF6FF71C0E90314FFF7D1F820B140F2EB
:102EB0004F1110A001F031F94FF480500090694695
:102EC0000B48FFF716F920B140F2551109A001F0A7
:102ED00024F9049404A906480594FFF790F8002803
:102EE00004D04FF4AE7103A001F017F906B010BD85
:102EF000580000202E2E2F5372632F74696D2E639D
:102F00000000000010B5194886B01749016047213C
:102F10000024C0E901144FF6FF71C0E90314FFF764
:102F200030FA18B1782112A001F0F7F8049404A93E
:102F30000E480594FFF763F818B17F210CA001F04B
:102F4000ECF80120CDE900400820CDE90240002244
:102F500069460648FFF786F9002803D0882104A0B7
:102F600001F0DBF806B010BD00040040D0000020E6
:102F70002E2E2F5372632F74696D2E630000000094
:102F800010B5174886B01549016016490024C0E9FC
:102F9000011440F6B831C0E90314FFF758F818B12E
:102FA000992111A001F0B9F84FF4805000906946C2
:102FB0000B48FFF79EF818B19F210BA001F0ADF868
:102FC000049404A906480594FFF719F8002803D0D3
:102FD000A62105A001F0A1F806B010BD0008004030
:102FE0000C0100203F1901002E2E2F5372632F7405
:102FF000696D2E63000000000D4810B50B4901609B
:103000004FF4E1314160002181600C22C160C0E9D0
:1030100004128161C161FFF73AFC002805D0BDE8C8
:1030200010404B2103A001F078B810BD00380140DA
:10303000780100202E2E2F5372632F7573617274E6
:103040002E6300000D4810B50B4901604FF4E131CB
:103050004160002181600C22C160C0E904128161DD
:10306000C161FFF714FC002805D0BDE810405E21C7
:1030700003A001F052B810BD00440040B801002088
:103080002E2E2F5372632F75736172742E6300009E
:103090000D4810B50B4901604FF4E131416000214A
:1030A00081600C22C160C0E904128161C161FFF737
:1030B000EEFB002805D0BDE81040712103A001F00F
:1030C0002CB810BD00480040F80100202E2E2F53D0
:1030D00072632F75736172742E630000FEE7704790
:1030E0000907090E002806DA00F00F0000F1E020C1
:1030F00080F8141D704700F1E02080F8001470473C
:10310000F0B585B0064655208DF80000AA208DF850
:1031100001008DF802200A208DF80300087882F063
:103120000A028DF8040050404A788DF8052042408C
:1031300088788DF806005040CA788DF80720424004
:1031400008798DF8080050404A798DF809204240EE
:1031500088798DF80A005040CA798DF80B204240DA
:10316000087A8DF80C0050404A7A8DF80D204240C4
:10317000887A8DF80E0050408DF80F00F020002462
:103180006D468DF810001127295D304600F082FD54
:10319000641CE4B2BC42F7D305B0F0BD704710B573
:1031A0000446007800280ED001202070FEF71CF99C
:1031B0006060FEF719F9A060002020612046BDE89C
:1031C000104000F089BF10BD7047000010B50A2004
:1031D000FDF714FA0A4C2080FDF75FF84FF06632D5
:1031E000084BFCF7D1FF6FF00B02FDF73FF8FDF73E
:1031F00075F86060FDF75EF80349887110BD000046
:103200000800002066660A40A003002010B50446AE
:10321000007800280ED101202070FEF7E5F86060EC
:10322000FEF7E2F8A060002020612046BDE81040D3
:1032300000F052BF10BD00000148FEF741BF000082
:103240005800002070B50446007800280DD00025F5
:103250002570FEF7C9F86060FEF7C6F82561A0602A
:103260002046BDE8704000F037BF70BD10B5FEF7D6
:10327000C1F8BDE81040FEF79BBE30B595B0012106
:103280000804CDE900100025029502240491CDE93F
:1032900007404FF4E01009906846FEF7A9FB00B123
:1032A000FEE70AA90F2081E831004FF48060CDE9E4
:1032B0000D0502210AA8FEF75DFA00B1FEE74FF402
:1032C000004011900F940FA8FEF7BEF900B1FEE781
:1032D000FEF714FB4FF47A71B0FBF1F0FEF754FEE9
:1032E0000420FEF744FE00221146501EFEF7FAF8B5
:1032F00015B030BD0D48016841F001010160416821
:103300000B4A1140416001680A4A1140016001689E
:1033100021F480210160416821F4FE0141604FF4F5
:103320001F0181600449C00308607047001002401B
:103330000000FFF8FFFFF6FE08ED00E0124910B5AF
:103340000120C1F89801C1F89C0100210F48FFF746
:10335000E3F90F48FDF75EFC0D48FDF761F90C48F5
:10336000FDF75EF90028FAD10A48FEF7B6FE002103
:103370000848FFF749F8FFF75FFF07480068C16892
:1033800041F02001C16010BD008021429400002066
:1033900048010020D0000020F801002010B50028CE
:1033A0001AD00E490E4800F0FDF9FFF70FFF0D4847
:1033B000FFF72CFF0B4800F08FFE0A484069642895
:1033C0000AD10848FFF7EBFE06490122BDE810408C
:1033D00018310548FFF794BE10BD000049050008EC
:1033E0002C000020880300204000002070B5154606
:1033F0000E460446FFF7E2FBAA20FFF7B3FBFFF7F8
:103400001BFC8420FFF7AEFBFFF716FC0320FFF741
:10341000A9FBFFF711FC8120FFF7A4FBFFF70CFCD1
:103420002046FFF79FFBFFF707FC8220FFF79AFB80
:10343000FFF702FC3046FFF795FBFFF7FDFB83200B
:10344000FFF790FBFFF7F8FB2846FFF78BFBFFF732
:10345000F3FBBDE87040FFF7CFBB00000148FEF76B
:10346000F9BF0000D00000200148FEF7F3BF0000C4
:103470000C010020F0B502681A4B1B4D1B4E1C4F6F
:103480001C4C4FF0804C984209D0A04207D06045B8
:1034900005D0A84203D0B04201D0B84204D122F0F6
:1034A000700E4A6842EA0E02984209D0A04207D044
:1034B000604505D0A84203D0B04201D0B84203D144
:1034C00022F44075CA682A4302608A68C2620A68A8
:1034D0008262984201D0A04201D1096901630121B1
:1034E0004161F0BD002C0140000400400008004094
:1034F000000C00400034014010B50123046A8B40E9
:103500009C430462036A8A401343036210BD10B5F2
:10351000846842EA032224F47F440A4322438260FF
:1035200010BD826822F070020A4342F007018160F8
:1035300070470000F0B5026A22F001020262036ADD
:1035400042688469124E24F073050C682C4323F002
:1035500002058B682B430D4DA84201D0B04205D126
:1035600023F00807CB683B4323F00403A84201D0B3
:10357000B04205D14D6922F4407215438A692A434D
:1035800042608461496841630362F0BD002C0140E0
:1035900000340140F0B5026A22F010020262026AB1
:1035A000436884690D6824F4E64444EA05248D6880
:1035B00022F0200242EA05120F4D104EA84201D01F
:1035C000B04206D1CF6822F0800242EA071222F010
:1035D0004002A84201D0B04207D14D6923F44063B4
:1035E00043EA85038D6943EA850343608461496842
:1035F00081630262F0BD0000002C014000340140F4
:10360000F0B5026A22F480720262026A4368C469F9
:1036100022F4007224F073050C68124E2C438D685E
:1036200042EA05220E4DA84201D0B04206D1CF6831
:1036300022F4006242EA072222F48062A84201D00A
:10364000B04207D14D6923F4405343EA05138D6915
:1036500043EA05134360C4614968C1630262F0BD77
:10366000002C01400034014030B5026A22F480523F
:103670000262046A4268C3690D6823F4E64343EAC0
:1036800005238D6824F4005444EA0534084DA8420B
:1036900002D0084DA84204D14D6922F4804242EA8A
:1036A00085124260C36149680164046230BD000054
:1036B000002C01400034014010B5036A046A24F074
:1036C00001040462846924F0F00444EA021423F043
:1036D0000A020A438461026210BD000070B5046AE8
:1036E00024F0010404628469056A124EB0420ED0CF
:1036F000114EB0420BD0B0F1804F08D00F4EB04207
:1037000005D00F4EB04202D00E4EB04203D124F08D
:103710000304144301E044F001041A0724F0F00408
:1037200044EA126225F00A0301F00A01194382619A
:10373000016270BD002C01400034014000040040D3
:1037400000080040000C004010B5036A23F010038D
:1037500003628369046A23F4704343EA023224F06B
:10376000A00343EA01118261016210BD30B5046A11
:1037700024F0100404628469056A24F4407444EA65
:10378000022222F470444FF6FF7202EA033222430F
:10379000A02425F0A00304EA01111943826101620B
:1037A00030BD00002DE9F34F04464FF00008C0790A
:1037B00095B0C146F94D42F2107B1C287DD1002105
:1037C000204600F091FA07460121204600F08CFACD
:1037D000552F73D1AA28FCD10221204600F084FA8B
:1037E00082460321204600F07FFA0746BAF1FE0F19
:1037F00065D11C2F63D82068FFF708FD206800F012
:103800006BFCE179B81D814274D320684169594548
:1038100070D80421204600F067FAE14908700521BC
:10382000204600F061FADF4908700621204600F0CA
:103830005BFADD4908700A21204600F055FADB4E9C
:103840000B213070204600F04FFA70700C2120469A
:1038500000F04AFAB0700D21204600F045FAF070F1
:103860000E21204600F040FAD14E0F213070204644
:1038700000F03AFA70701021204600F035FAB0706E
:103880001121204600F030FAF0701221204600F09D
:103890002BFAC84E13213070204600F025FA7070C4
:1038A0001421204600F020FAB0701521204600F0C7
:1038B0001BFAF0701621204602E08DE088E09AE0C5
:1038C00000F012FABC4E17213070204600F00CFABE
:1038D00070701821204600F007FAB07019212046B8
:1038E00000F002FAF0702068FFF7ACFC002607F148
:1038F000030A09E062E0B01CC1B2204600F0F4F90E
:10390000761C88EA0008F6B25645F4D3B61CF1B22C
:10391000204600F0E9F9B8F1000F01D1F02833D0CA
:103920000121204600F0E0F99D48A44902789D4815
:103930000A70007848709C48007888709B4803782B
:10394000CB7043780B7183784B71C078887198483D
:103950000378CB7143780B7283784B72C07888728E
:1039600094480378CB7243780B7383784B73C07899
:10397000887391480378CB7343780B7483784B74C6
:10398000C07888742A7027E00421204600F040F9AE
:1039900000260DF12C0806E0204600F05CF908F83E
:1039A0000600761CF6B2BE42F6D30221204600F095
:1039B0002FF9169A0BA920469047B5E7E079B61D76
:1039C000B04209D8206842695A4505D3FFF73AFC4E
:1039D0000121204600F01CF9E0790D287ED100215C
:1039E000204600F081F906460121204600F07CF9CE
:1039F000552E05D002E10121204600F075F9EBE7D4
:103A0000AA28F7D10221204600F06EF907460321CB
:103A1000204600F069F90646FE2F7DD10D2E7BD899
:103A20002068FFF7F3FB206800F056FBE179B01D3A
:103A3000814272D321684A695A456ED804212046D2
:103A400000F052F982460521204600F04DF98346E8
:103A50000621204600F048F912900721204600F088
:103A600043F90821204600F03FF90921204600F0E3
:103A70003BF905902068FFF7E5FB002706F10308F6
:103A800008E0B81CC1B2204600F02EF97F1C89EA7C
:103A90000009FFB24745F4D3BF1CF9B2204600F03D
:103AA00023F9B9F1000F01D1F02839D001212046C6
:103AB00000F01AF94248022700240126BAF1010F4A
:103AC00048D0BAF1020F4BD000684FF4FA7141634D
:103AD0002C725846BBF1010F49D000E01AE00228D1
:103AE0004CD0BBF1030F50D06C72129901296FD0EA
:103AF000344802296ED0032970D0C0F89441C0F830
:103B00009061EC703048059981B3012902D1C0F869
:103B10009861AE7217B001E075E066E0BDE8F08F25
:103B20000421204600F074F800270DF1180806E083
:103B3000204600F090F808F807007F1CFFB2B7425B
:103B4000F6D30221204600F063F8169A06A9204613
:103B50009047AFE700684FF47A7141632E72B8E77F
:103B600000684FF4FA6141632F72B2E739E0002236
:103B700011460F20FFF73AFC6E72B6E700220F21C4
:103B80001046FFF733FC6F72AFE700210F220846A3
:103B9000FFF72CFC03206872A7E719E0A0030020C0
:103BA00018000020190000201A0000201B0000202F
:103BB0001F0000202300002027000020AB0300206E
:103BC00094000020008021420000224202E005E033
:103BD000EE7097E7C0F89041EF7093E71020E8701F
:103BE00090E7C0F89841AC7294E7E179814291D8AE
:103BF000206842695A458DD3FFF724FB01212046F6
:103C000000F006F886E70121204600F06DF881E714
:103C1000C37902698B42126808D3D36823F020036A
:103C2000D360C279521A07E081717047D16821F0E0
:103C30002001D160C1790022C27102691268D36883
:103C400043F02003D3608279114402798A42EBD891
:103C5000891A89B2E8E78279C168895CC279BAB108
:103C60008279521CD2B2827103799A4201D1002228
:103C7000827102691268D36823F02003D360C2798D
:103C8000521EC27100690068C26842F02002C26020
:103C9000084670470279C3799342FCD002691268E2
:103CA000D36823F08003D360C2793AB902691268FD
:103CB0001368DB431B0601D451600EE04379C268F0
:103CC000D1544179491CC9B241710279914201D163
:103CD00000214171C179491CC17100690068C16846
:103CE00041F08001C1607047C2798A4207D382796E
:103CF000114402798A4203D8891A89B200E000216E
:103D0000C068405C7047000010B590F83910222957
:103D100003D0322901D0022010BD8168B1F5805F47
:103D200011D00169002901681FD0496801F07F03A3
:103D3000816A4A1C82620B70C18D491E0904090CFC
:103D4000C18518D030E00269816A002A0268526891
:103D500005D0D2B20A80816A491C8162ECE7C2F3C5
:103D600008020A80816A891CF7E74A68816A4B1C4D
:103D700083620A70E0E70168CA6822F02002CA6024
:103D800090F83910322911D00168CA6822F4807283
:103D9000CA6001684A6922F001024A615FF00101CC
:103DA00080F83910FEF7DAFE002010BD1221F7E787
:103DB00010B5016909680A68D243920610D4CA682E
:103DC00092060DD54A680968D2B2C179491CCBB2B6
:103DD000C37104790021A34203D9C1710121017289
:103DE00010BD4479C3681A554279521CD2B242714F
:103DF00003799A42F4D3417110BD00002DE9F041DE
:103E0000044600680169E26821F4405111430161F0
:103E10002169A0680843616908432168CA6841F2C2
:103E20000C639A430243CA6020684169A26921F485
:103E30004071114341614C49206864253226884213
:103E40003CD1FDF779FD00EBC00101EB001061688A
:103E50008900B0FBF1F7FDF76FFD00EBC00101EB4E
:103E600000106168B0468900B0FBF1F0B0FBF5F0DE
:103E70006FF01801484307EB800106EB0110B0FB1F
:103E8000F5F000F0F006FDF757FD00EBC00101EB87
:103E9000001061688900B0FBF1F0B0FBF5F006EBB3
:103EA0000016FDF749FD00EBC00101EB0010616851
:103EB0008900B0FBF1F7FDF73FFD3BE0FDF724FD86
:103EC00000EBC00101EB001061688900B0FBF1F765
:103ED000FDF71AFD00EBC00101EB00106168B04670
:103EE0008900B0FBF1F0B0FBF5F06FF0180148432A
:103EF00007EB800106EB0110B0FBF5F000F0F006D7
:103F0000FDF702FD00EBC00101EB001061688900C4
:103F1000B0FBF1F0B0FBF5F006EB0016FDF7F4FC9A
:103F200000EBC00101EB001061688900B0FBF1F704
:103F3000FDF7EAFC00EBC00101EB001061688900AD
:103F4000B0FBF1F0B0FBF5F06FF01801484307EB60
:103F5000800108EB0110B0FBF5F0216800F00F00C4
:103F600030448860BDE8F0810038014090F8391095
:103F7000122903D0322901D0022070478168B1F59F
:103F8000805F016A0BD04A1C0262026809785160A6
:103F9000C18C491E0904090CC1840ED017E00988A0
:103FA0000268C1F30801516001690029016A02D069
:103FB000491C0162ECE7891CFBE70168CA6822F032
:103FC0008002CA600068C16841F04001C160002001
:103FD0007047016882B00A6812F0010FCA6802F4E3
:103FE000807207D032B10A684A680092C26B42F010
:103FF0000102C2630A68C2F3400232B10A684A6829
:104000000092C26B42F00402C2630A68C2F38002EB
:1040100032B10A684A680092C26B42F00202C2637F
:104020000A68C2F3C00232B10A6849680091C16BE4
:1040300041F00801C163C16B002905D0012180F85E
:10404000391002B0FEF7B5BB02B0704701690968CC
:104050000A68D243120619D4CA68120616D56FF040
:1040600080020A60C17991B1C179491EC17182791A
:10407000C168895C0269126851608179491CC9B2C2
:1040800081710279914201D30021817170470069E9
:104090000068C16821F08001C16070470148FEF7E7
:1040A00089BB0000780100200148FEF783BB0000B7
:1040B000B801002010B50548FFF7C8FF0448FFF716
:1040C00077FEBDE810400348FFF783BF40000020A3
:1040D0002C000020F801002070B500250446C560C2
:1040E0000078012803D0022813D0656170BDFDF768
:1040F0007BF9A0606168884201D1E56005E0A0EB32
:10410000010001D8A0F10100E060D4E903100844E7
:1041100000E02069606170BDFEE7FEE702E008C8CC
:10412000121F08C1002AFAD170477047002001E031
:1041300001C1121F002AFBD17047000010B50446D0
:104140000420FDF714FF0148046010BD5400002056
:10415000FDF758F9FFF791F8FEF706FEFEF7C6FDEA
:10416000FEF770FFFEF794FFFEF790FDFEF736FEB8
:10417000FEF7C8FEFEF740FFFEF702FFFEF786FEE1
:10418000FFF7DCF84820FFF7D9FF0120FFF706F919
:10419000FBE7000000000000000001020304060726
:1041A000080900000000010203040000CC410008DF
:1041B00000000020580000001C41000824420008B4
:1041C00058000020D80700002C4100080000000023
:1041D00000A24A04000000000000000000000000EF
:1041E00000000000000000000000000000000000CF
:1041F0000000000000000000C40300201E000000BA
:1042000000000000F4030020F8010020DC0300207F
:104210001E0000000000000012040020F801002031
:04422000000000009A
:0400000508000131BD
:00000001FF
